{"abi":[{"type":"constructor","inputs":[],"stateMutability":"nonpayable"},{"type":"function","name":"EIP712_NAME","inputs":[],"outputs":[{"name":"","type":"string","internalType":"string"}],"stateMutability":"view"},{"type":"function","name":"EIP712_VERSION","inputs":[],"outputs":[{"name":"","type":"string","internalType":"string"}],"stateMutability":"view"},{"type":"function","name":"INSERT_AUTHENTICATOR_TYPEHASH","inputs":[],"outputs":[{"name":"","type":"bytes32","internalType":"bytes32"}],"stateMutability":"view"},{"type":"function","name":"RECOVER_ACCOUNT_TYPEHASH","inputs":[],"outputs":[{"name":"","type":"bytes32","internalType":"bytes32"}],"stateMutability":"view"},{"type":"function","name":"REMOVE_AUTHENTICATOR_TYPEHASH","inputs":[],"outputs":[{"name":"","type":"bytes32","internalType":"bytes32"}],"stateMutability":"view"},{"type":"function","name":"UPDATE_AUTHENTICATOR_TYPEHASH","inputs":[],"outputs":[{"name":"","type":"bytes32","internalType":"bytes32"}],"stateMutability":"view"},{"type":"function","name":"UPDATE_RECOVERY_ADDRESS_TYPEHASH","inputs":[],"outputs":[{"name":"","type":"bytes32","internalType":"bytes32"}],"stateMutability":"view"},{"type":"function","name":"UPGRADE_INTERFACE_VERSION","inputs":[],"outputs":[{"name":"","type":"string","internalType":"string"}],"stateMutability":"view"},{"type":"function","name":"acceptOwnership","inputs":[],"outputs":[],"stateMutability":"nonpayable"},{"type":"function","name":"authenticatorAddressToPackedAccountData","inputs":[{"name":"","type":"address","internalType":"address"}],"outputs":[{"name":"","type":"uint256","internalType":"uint256"}],"stateMutability":"view"},{"type":"function","name":"createAccount","inputs":[{"name":"recoveryAddress","type":"address","internalType":"address"},{"name":"authenticatorAddresses","type":"address[]","internalType":"address[]"},{"name":"authenticatorPubkeys","type":"uint256[]","internalType":"uint256[]"},{"name":"offchainSignerCommitment","type":"uint256","internalType":"uint256"}],"outputs":[],"stateMutability":"nonpayable"},{"type":"function","name":"createManyAccounts","inputs":[{"name":"recoveryAddresses","type":"address[]","internalType":"address[]"},{"name":"authenticatorAddresses","type":"address[][]","internalType":"address[][]"},{"name":"authenticatorPubkeys","type":"uint256[][]","internalType":"uint256[][]"},{"name":"offchainSignerCommitments","type":"uint256[]","internalType":"uint256[]"}],"outputs":[],"stateMutability":"nonpayable"},{"type":"function","name":"currentRoot","inputs":[],"outputs":[{"name":"","type":"uint256","internalType":"uint256"}],"stateMutability":"view"},{"type":"function","name":"domainSeparatorV4","inputs":[],"outputs":[{"name":"","type":"bytes32","internalType":"bytes32"}],"stateMutability":"view"},{"type":"function","name":"eip712Domain","inputs":[],"outputs":[{"name":"fields","type":"bytes1","internalType":"bytes1"},{"name":"name","type":"string","internalType":"string"},{"name":"version","type":"string","internalType":"string"},{"name":"chainId","type":"uint256","internalType":"uint256"},{"name":"verifyingContract","type":"address","internalType":"address"},{"name":"salt","type":"bytes32","internalType":"bytes32"},{"name":"extensions","type":"uint256[]","internalType":"uint256[]"}],"stateMutability":"view"},{"type":"function","name":"getRecoveryAddress","inputs":[{"name":"leafIndex","type":"uint256","internalType":"uint256"}],"outputs":[{"name":"","type":"address","internalType":"address"}],"stateMutability":"view"},{"type":"function","name":"initialize","inputs":[{"name":"initialTreeDepth","type":"uint256","internalType":"uint256"}],"outputs":[],"stateMutability":"nonpayable"},{"type":"function","name":"insertAuthenticator","inputs":[{"name":"leafIndex","type":"uint256","internalType":"uint256"},{"name":"newAuthenticatorAddress","type":"address","internalType":"address"},{"name":"pubkeyId","type":"uint32","internalType":"uint32"},{"name":"newAuthenticatorPubkey","type":"uint256","internalType":"uint256"},{"name":"oldOffchainSignerCommitment","type":"uint256","internalType":"uint256"},{"name":"newOffchainSignerCommitment","type":"uint256","internalType":"uint256"},{"name":"signature","type":"bytes","internalType":"bytes"},{"name":"siblingNodes","type":"uint256[]","internalType":"uint256[]"},{"name":"nonce","type":"uint256","internalType":"uint256"}],"outputs":[],"stateMutability":"nonpayable"},{"type":"function","name":"isValidRoot","inputs":[{"name":"root","type":"uint256","internalType":"uint256"}],"outputs":[{"name":"","type":"bool","internalType":"bool"}],"stateMutability":"view"},{"type":"function","name":"latestRoot","inputs":[],"outputs":[{"name":"","type":"uint256","internalType":"uint256"}],"stateMutability":"view"},{"type":"function","name":"leafIndexToRecoveryCounter","inputs":[{"name":"","type":"uint256","internalType":"uint256"}],"outputs":[{"name":"","type":"uint256","internalType":"uint256"}],"stateMutability":"view"},{"type":"function","name":"leafIndexToSignatureNonce","inputs":[{"name":"","type":"uint256","internalType":"uint256"}],"outputs":[{"name":"","type":"uint256","internalType":"uint256"}],"stateMutability":"view"},{"type":"function","name":"maxAuthenticators","inputs":[],"outputs":[{"name":"","type":"uint256","internalType":"uint256"}],"stateMutability":"view"},{"type":"function","name":"nextLeafIndex","inputs":[],"outputs":[{"name":"","type":"uint256","internalType":"uint256"}],"stateMutability":"view"},{"type":"function","name":"owner","inputs":[],"outputs":[{"name":"","type":"address","internalType":"address"}],"stateMutability":"view"},{"type":"function","name":"pendingOwner","inputs":[],"outputs":[{"name":"","type":"address","internalType":"address"}],"stateMutability":"view"},{"type":"function","name":"proxiableUUID","inputs":[],"outputs":[{"name":"","type":"bytes32","internalType":"bytes32"}],"stateMutability":"view"},{"type":"function","name":"recoverAccount","inputs":[{"name":"leafIndex","type":"uint256","internalType":"uint256"},{"name":"newAuthenticatorAddress","type":"address","internalType":"address"},{"name":"newAuthenticatorPubkey","type":"uint256","internalType":"uint256"},{"name":"oldOffchainSignerCommitment","type":"uint256","internalType":"uint256"},{"name":"newOffchainSignerCommitment","type":"uint256","internalType":"uint256"},{"name":"signature","type":"bytes","internalType":"bytes"},{"name":"siblingNodes","type":"uint256[]","internalType":"uint256[]"},{"name":"nonce","type":"uint256","internalType":"uint256"}],"outputs":[],"stateMutability":"nonpayable"},{"type":"function","name":"removeAuthenticator","inputs":[{"name":"leafIndex","type":"uint256","internalType":"uint256"},{"name":"authenticatorAddress","type":"address","internalType":"address"},{"name":"pubkeyId","type":"uint32","internalType":"uint32"},{"name":"authenticatorPubkey","type":"uint256","internalType":"uint256"},{"name":"oldOffchainSignerCommitment","type":"uint256","internalType":"uint256"},{"name":"newOffchainSignerCommitment","type":"uint256","internalType":"uint256"},{"name":"signature","type":"bytes","internalType":"bytes"},{"name":"siblingNodes","type":"uint256[]","internalType":"uint256[]"},{"name":"nonce","type":"uint256","internalType":"uint256"}],"outputs":[],"stateMutability":"nonpayable"},{"type":"function","name":"renounceOwnership","inputs":[],"outputs":[],"stateMutability":"nonpayable"},{"type":"function","name":"rootToTimestamp","inputs":[{"name":"","type":"uint256","internalType":"uint256"}],"outputs":[{"name":"","type":"uint256","internalType":"uint256"}],"stateMutability":"view"},{"type":"function","name":"rootValidityWindow","inputs":[],"outputs":[{"name":"","type":"uint256","internalType":"uint256"}],"stateMutability":"view"},{"type":"function","name":"setMaxAuthenticators","inputs":[{"name":"newMaxAuthenticators","type":"uint256","internalType":"uint256"}],"outputs":[],"stateMutability":"nonpayable"},{"type":"function","name":"setRootValidityWindow","inputs":[{"name":"newWindow","type":"uint256","internalType":"uint256"}],"outputs":[],"stateMutability":"nonpayable"},{"type":"function","name":"transferOwnership","inputs":[{"name":"newOwner","type":"address","internalType":"address"}],"outputs":[],"stateMutability":"nonpayable"},{"type":"function","name":"tree","inputs":[],"outputs":[{"name":"depth","type":"uint256","internalType":"uint256"},{"name":"root","type":"uint256","internalType":"uint256"},{"name":"numberOfLeaves","type":"uint256","internalType":"uint256"},{"name":"useDefaultZeroes","type":"bool","internalType":"bool"}],"stateMutability":"view"},{"type":"function","name":"treeDepth","inputs":[],"outputs":[{"name":"","type":"uint256","internalType":"uint256"}],"stateMutability":"view"},{"type":"function","name":"updateAuthenticator","inputs":[{"name":"leafIndex","type":"uint256","internalType":"uint256"},{"name":"oldAuthenticatorAddress","type":"address","internalType":"address"},{"name":"newAuthenticatorAddress","type":"address","internalType":"address"},{"name":"pubkeyId","type":"uint32","internalType":"uint32"},{"name":"newAuthenticatorPubkey","type":"uint256","internalType":"uint256"},{"name":"oldOffchainSignerCommitment","type":"uint256","internalType":"uint256"},{"name":"newOffchainSignerCommitment","type":"uint256","internalType":"uint256"},{"name":"signature","type":"bytes","internalType":"bytes"},{"name":"siblingNodes","type":"uint256[]","internalType":"uint256[]"},{"name":"nonce","type":"uint256","internalType":"uint256"}],"outputs":[],"stateMutability":"nonpayable"},{"type":"function","name":"updateRecoveryAddress","inputs":[{"name":"leafIndex","type":"uint256","internalType":"uint256"},{"name":"newRecoveryAddress","type":"address","internalType":"address"},{"name":"signature","type":"bytes","internalType":"bytes"},{"name":"nonce","type":"uint256","internalType":"uint256"}],"outputs":[],"stateMutability":"nonpayable"},{"type":"function","name":"upgradeToAndCall","inputs":[{"name":"newImplementation","type":"address","internalType":"address"},{"name":"data","type":"bytes","internalType":"bytes"}],"outputs":[],"stateMutability":"payable"},{"type":"event","name":"AccountCreated","inputs":[{"name":"leafIndex","type":"uint256","indexed":true,"internalType":"uint256"},{"name":"recoveryAddress","type":"address","indexed":true,"internalType":"address"},{"name":"authenticatorAddresses","type":"address[]","indexed":false,"internalType":"address[]"},{"name":"authenticatorPubkeys","type":"uint256[]","indexed":false,"internalType":"uint256[]"},{"name":"offchainSignerCommitment","type":"uint256","indexed":false,"internalType":"uint256"}],"anonymous":false},{"type":"event","name":"AccountRecovered","inputs":[{"name":"leafIndex","type":"uint256","indexed":true,"internalType":"uint256"},{"name":"newAuthenticatorAddress","type":"address","indexed":true,"internalType":"address"},{"name":"newAuthenticatorPubkey","type":"uint256","indexed":true,"internalType":"uint256"},{"name":"oldOffchainSignerCommitment","type":"uint256","indexed":false,"internalType":"uint256"},{"name":"newOffchainSignerCommitment","type":"uint256","indexed":false,"internalType":"uint256"}],"anonymous":false},{"type":"event","name":"AccountUpdated","inputs":[{"name":"leafIndex","type":"uint256","indexed":true,"internalType":"uint256"},{"name":"pubkeyId","type":"uint32","indexed":false,"internalType":"uint32"},{"name":"newAuthenticatorPubkey","type":"uint256","indexed":false,"internalType":"uint256"},{"name":"oldAuthenticatorAddress","type":"address","indexed":true,"internalType":"address"},{"name":"newAuthenticatorAddress","type":"address","indexed":true,"internalType":"address"},{"name":"oldOffchainSignerCommitment","type":"uint256","indexed":false,"internalType":"uint256"},{"name":"newOffchainSignerCommitment","type":"uint256","indexed":false,"internalType":"uint256"}],"anonymous":false},{"type":"event","name":"AuthenticatorInserted","inputs":[{"name":"leafIndex","type":"uint256","indexed":true,"internalType":"uint256"},{"name":"pubkeyId","type":"uint32","indexed":false,"internalType":"uint32"},{"name":"authenticatorAddress","type":"address","indexed":true,"internalType":"address"},{"name":"newAuthenticatorPubkey","type":"uint256","indexed":true,"internalType":"uint256"},{"name":"oldOffchainSignerCommitment","type":"uint256","indexed":false,"internalType":"uint256"},{"name":"newOffchainSignerCommitment","type":"uint256","indexed":false,"internalType":"uint256"}],"anonymous":false},{"type":"event","name":"AuthenticatorRemoved","inputs":[{"name":"leafIndex","type":"uint256","indexed":true,"internalType":"uint256"},{"name":"pubkeyId","type":"uint32","indexed":false,"internalType":"uint32"},{"name":"authenticatorAddress","type":"address","indexed":true,"internalType":"address"},{"name":"authenticatorPubkey","type":"uint256","indexed":true,"internalType":"uint256"},{"name":"oldOffchainSignerCommitment","type":"uint256","indexed":false,"internalType":"uint256"},{"name":"newOffchainSignerCommitment","type":"uint256","indexed":false,"internalType":"uint256"}],"anonymous":false},{"type":"event","name":"EIP712DomainChanged","inputs":[],"anonymous":false},{"type":"event","name":"Initialized","inputs":[{"name":"version","type":"uint64","indexed":false,"internalType":"uint64"}],"anonymous":false},{"type":"event","name":"MaxAuthenticatorsUpdated","inputs":[{"name":"oldMax","type":"uint256","indexed":false,"internalType":"uint256"},{"name":"newMax","type":"uint256","indexed":false,"internalType":"uint256"}],"anonymous":false},{"type":"event","name":"OwnershipTransferStarted","inputs":[{"name":"previousOwner","type":"address","indexed":true,"internalType":"address"},{"name":"newOwner","type":"address","indexed":true,"internalType":"address"}],"anonymous":false},{"type":"event","name":"OwnershipTransferred","inputs":[{"name":"previousOwner","type":"address","indexed":true,"internalType":"address"},{"name":"newOwner","type":"address","indexed":true,"internalType":"address"}],"anonymous":false},{"type":"event","name":"RecoveryAddressUpdated","inputs":[{"name":"leafIndex","type":"uint256","indexed":true,"internalType":"uint256"},{"name":"oldRecoveryAddress","type":"address","indexed":true,"internalType":"address"},{"name":"newRecoveryAddress","type":"address","indexed":true,"internalType":"address"}],"anonymous":false},{"type":"event","name":"RootRecorded","inputs":[{"name":"root","type":"uint256","indexed":true,"internalType":"uint256"},{"name":"timestamp","type":"uint256","indexed":false,"internalType":"uint256"}],"anonymous":false},{"type":"event","name":"RootValidityWindowUpdated","inputs":[{"name":"oldWindow","type":"uint256","indexed":false,"internalType":"uint256"},{"name":"newWindow","type":"uint256","indexed":false,"internalType":"uint256"}],"anonymous":false},{"type":"event","name":"Upgraded","inputs":[{"name":"implementation","type":"address","indexed":true,"internalType":"address"}],"anonymous":false},{"type":"error","name":"AccountDoesNotExist","inputs":[{"name":"leafIndex","type":"uint256","internalType":"uint256"}]},{"type":"error","name":"AddressEmptyCode","inputs":[{"name":"target","type":"address","internalType":"address"}]},{"type":"error","name":"AuthenticatorAddressAlreadyInUse","inputs":[{"name":"authenticatorAddress","type":"address","internalType":"address"}]},{"type":"error","name":"AuthenticatorAlreadyExists","inputs":[{"name":"authenticatorAddress","type":"address","internalType":"address"}]},{"type":"error","name":"AuthenticatorDoesNotBelongToAccount","inputs":[{"name":"expectedLeafIndex","type":"uint256","internalType":"uint256"},{"name":"actualLeafIndex","type":"uint256","internalType":"uint256"}]},{"type":"error","name":"AuthenticatorDoesNotExist","inputs":[{"name":"authenticatorAddress","type":"address","internalType":"address"}]},{"type":"error","name":"BitmapOverflow","inputs":[]},{"type":"error","name":"ECDSAInvalidSignature","inputs":[]},{"type":"error","name":"ECDSAInvalidSignatureLength","inputs":[{"name":"length","type":"uint256","internalType":"uint256"}]},{"type":"error","name":"ECDSAInvalidSignatureS","inputs":[{"name":"s","type":"bytes32","internalType":"bytes32"}]},{"type":"error","name":"ERC1967InvalidImplementation","inputs":[{"name":"implementation","type":"address","internalType":"address"}]},{"type":"error","name":"ERC1967NonPayable","inputs":[]},{"type":"error","name":"EmptyAddressArray","inputs":[]},{"type":"error","name":"FailedCall","inputs":[]},{"type":"error","name":"ImplementationNotInitialized","inputs":[]},{"type":"error","name":"InvalidInitialization","inputs":[]},{"type":"error","name":"InvalidSignature","inputs":[]},{"type":"error","name":"MismatchedAuthenticatorSigner","inputs":[{"name":"expectedAuthenticatorAddress","type":"address","internalType":"address"},{"name":"actualAuthenticatorAddress","type":"address","internalType":"address"}]},{"type":"error","name":"MismatchedLeafIndex","inputs":[{"name":"expectedLeafIndex","type":"uint256","internalType":"uint256"},{"name":"actualLeafIndex","type":"uint256","internalType":"uint256"}]},{"type":"error","name":"MismatchedPubkeyId","inputs":[{"name":"expectedPubkeyId","type":"uint256","internalType":"uint256"},{"name":"actualPubkeyId","type":"uint256","internalType":"uint256"}]},{"type":"error","name":"MismatchedRecoveryCounter","inputs":[{"name":"leafIndex","type":"uint256","internalType":"uint256"},{"name":"expectedRecoveryCounter","type":"uint256","internalType":"uint256"},{"name":"actualRecoveryCounter","type":"uint256","internalType":"uint256"}]},{"type":"error","name":"MismatchedSignatureNonce","inputs":[{"name":"leafIndex","type":"uint256","internalType":"uint256"},{"name":"expectedNonce","type":"uint256","internalType":"uint256"},{"name":"actualNonce","type":"uint256","internalType":"uint256"}]},{"type":"error","name":"MismatchingArrayLengths","inputs":[]},{"type":"error","name":"NotInitializing","inputs":[]},{"type":"error","name":"OwnableInvalidOwner","inputs":[{"name":"owner","type":"address","internalType":"address"}]},{"type":"error","name":"OwnableUnauthorizedAccount","inputs":[{"name":"account","type":"address","internalType":"address"}]},{"type":"error","name":"OwnerMaxAuthenticatorsOutOfBounds","inputs":[]},{"type":"error","name":"PubkeyIdDoesNotExist","inputs":[]},{"type":"error","name":"PubkeyIdInUse","inputs":[]},{"type":"error","name":"PubkeyIdOutOfBounds","inputs":[]},{"type":"error","name":"PubkeyIdOverflow","inputs":[{"name":"pubkeyId","type":"uint256","internalType":"uint256"}]},{"type":"error","name":"RecoveryAddressNotSet","inputs":[{"name":"leafIndex","type":"uint256","internalType":"uint256"}]},{"type":"error","name":"RecoveryNotEnabled","inputs":[]},{"type":"error","name":"ReusedAuthenticatorAddress","inputs":[]},{"type":"error","name":"UUPSUnauthorizedCallContext","inputs":[]},{"type":"error","name":"UUPSUnsupportedProxiableUUID","inputs":[{"name":"slot","type":"bytes32","internalType":"bytes32"}]},{"type":"error","name":"ZeroAddress","inputs":[]},{"type":"error","name":"ZeroRecoveredSignatureAddress","inputs":[]}],"bytecode":{"object":"0x60a080604052346100c257306080525f5160206146f15f395f51905f525460ff8160401c166100b3576002600160401b03196001600160401b03821601610060575b60405161462a90816100c782396080518181816129a501526135540152f35b6001600160401b0319166001600160401b039081175f5160206146f15f395f51905f525581527fc7f505b2f371ae2175ee4913f4499e1f2633a7b5936321eed1cdaeb6115181d290602090a15f80610041565b63f92ee8a960e01b5f5260045ffd5b5f80fdfe6080806040526004361015610012575f80fd5b5f905f3560e01c908163043e28b0146130a5575080630be4f4221461306a57806316a56c411461302f5780631bda592f14612fd75780632cdabbce14612f815780632d16243514612f295780633b2fb7a814612ef05780633e4ea82814612cf35780634b452b5c14612c9b5780634f1ef28614612a1d57806352d1902d14612960578063697bff19146128fd578063715018a6146127bd57806375a2f9561461273b57806378e890ba146126eb57806379ba50971461264a5780637d4ca23a146123b157806382ba82291461209c57806384b0196e14611ef75780638a409f9b14611eaf5780638da5cb5b14611e3f57806392f3e842146119005780639302579a146114d057806394a10d671461148857806397e10feb146110ec5780639b07573514610fc0578063ad3cb1cc14610f43578063bb34342b14610eeb578063cdb474b714610e93578063d7b0fef114610e58578063d816ea4514610da3578063dff6371914610d5b578063e1f30df514610d20578063e30c397814610cb0578063e710c52d14610c43578063eccec5a814610bf2578063f2fde38b14610ad7578063fd54b22814610a7e578063fdab463d14610a335763fe4b84df146101d6575f80fd5b346106285760207ffffffffffffffffffffffffffffffffffffffffffffffffffffffffffffffffc36011261062857600435907ff0c57e16840df040f15088dc2f81fe391c3923bec73e23a9662efc9c229c6a005460ff8160401c16159067ffffffffffffffff811680159081610a2b575b6001149081610a21575b159081610a18575b506109f0578160017fffffffffffffffffffffffffffffffffffffffffffffffff00000000000000008316177ff0c57e16840df040f15088dc2f81fe391c3923bec73e23a9662efc9c229c6a005561099b575b506102b6613158565b926102bf613349565b936102c861431b565b6102d061431b565b80519067ffffffffffffffff82116107f757819061030e7fa16a46d94261c7517cc8ff89f61c0ce93598e3c849801011dee649a6a557d10254613ec2565b601f811161090e575b50602090601f831160011461082f575f92610824575b50507fffffffffffffffffffffffffffffffffffffffffffffffffffffffffffffffff8260011b9260031b1c1916177fa16a46d94261c7517cc8ff89f61c0ce93598e3c849801011dee649a6a557d102555b835167ffffffffffffffff81116107f7576103ba7fa16a46d94261c7517cc8ff89f61c0ce93598e3c849801011dee649a6a557d10354613ec2565b601f8111610775575b50602094601f8211600114610697579481929394955f9261068c575b50507fffffffffffffffffffffffffffffffffffffffffffffffffffffffffffffffff8260011b9260031b1c1916177fa16a46d94261c7517cc8ff89f61c0ce93598e3c849801011dee649a6a557d103555b5f7fa16a46d94261c7517cc8ff89f61c0ce93598e3c849801011dee649a6a557d100555f7fa16a46d94261c7517cc8ff89f61c0ce93598e3c849801011dee649a6a557d1015561047f61431b565b61048761431b565b331561066057610496336138e8565b61049e61431b565b80600b5573__$c7624c4888816852df6e0282f8b23fc520$__90813b1561062857604051907f14d8c62600000000000000000000000000000000000000000000000000000000825260048083015260248201525f81604481855af480156106555761063f575b506020604491604051928380927f143dc3830000000000000000000000000000000000000000000000000000000082526004808301528760248301525af4801561063457610601575b506001600a5561055b613867565b6007600c55610e10600f5561056d5780f35b7fffffffffffffffffffffffffffffffffffffffffffffff00ffffffffffffffff7ff0c57e16840df040f15088dc2f81fe391c3923bec73e23a9662efc9c229c6a0054167ff0c57e16840df040f15088dc2f81fe391c3923bec73e23a9662efc9c229c6a00557fc7f505b2f371ae2175ee4913f4499e1f2633a7b5936321eed1cdaeb6115181d2602060405160018152a180f35b6020813d60201161062c575b8161061a602093836130dd565b81010312610628575161054d565b5f80fd5b3d915061060d565b6040513d85823e3d90fd5b61064c9193505f906130dd565b5f916020610504565b6040513d5f823e3d90fd5b7f1e4fbdf7000000000000000000000000000000000000000000000000000000005f525f60045260245ffd5b015190505f806103df565b7fffffffffffffffffffffffffffffffffffffffffffffffffffffffffffffffe08216957fa16a46d94261c7517cc8ff89f61c0ce93598e3c849801011dee649a6a557d1035f52805f20915f5b88811061075d57508360019596979810610726575b505050811b017fa16a46d94261c7517cc8ff89f61c0ce93598e3c849801011dee649a6a557d10355610431565b01517fffffffffffffffffffffffffffffffffffffffffffffffffffffffffffffffff60f88460031b161c191690555f80806106f9565b919260206001819286850151815501940192016106e4565b7fa16a46d94261c7517cc8ff89f61c0ce93598e3c849801011dee649a6a557d1035f527f5f9ce34815f8e11431c7bb75a8e6886a91478f7ffc1dbb0a98dc240fddd76b75601f830160051c810191602084106107ed575b601f0160051c01905b8181106107e257506103c3565b5f81556001016107d5565b90915081906107cc565b7f4e487b71000000000000000000000000000000000000000000000000000000005f52604160045260245ffd5b015190505f8061032d565b917fffffffffffffffffffffffffffffffffffffffffffffffffffffffffffffffe016917fa16a46d94261c7517cc8ff89f61c0ce93598e3c849801011dee649a6a557d1025f52815f20925f5b8181106108f657509084600195949392106108bf575b505050811b017fa16a46d94261c7517cc8ff89f61c0ce93598e3c849801011dee649a6a557d1025561037f565b01517fffffffffffffffffffffffffffffffffffffffffffffffffffffffffffffffff60f88460031b161c191690555f8080610892565b9293602060018192878601518155019501930161087c565b7fa16a46d94261c7517cc8ff89f61c0ce93598e3c849801011dee649a6a557d1025f529091507f42ad5d3e1f2e6e70edcf6d991b8a3023d3fca8047a131592f9edb9fd9b89d57d601f840160051c81019160208510610991575b90601f859493920160051c01905b8181106109835750610317565b5f8155849350600101610976565b9091508190610968565b7fffffffffffffffffffffffffffffffffffffffffffffff0000000000000000001668010000000000000001177ff0c57e16840df040f15088dc2f81fe391c3923bec73e23a9662efc9c229c6a00555f6102ad565b7ff92ee8a9000000000000000000000000000000000000000000000000000000005f5260045ffd5b9050155f61025a565b303b159150610252565b839150610248565b34610628575f7ffffffffffffffffffffffffffffffffffffffffffffffffffffffffffffffffc36011261062857610a6961353d565b610a716135c8565b6020600554604051908152f35b34610628575f7ffffffffffffffffffffffffffffffffffffffffffffffffffffffffffffffffc36011261062857608060045460055460065460ff60095416916040519384526020840152604083015215156060820152f35b346106285760207ffffffffffffffffffffffffffffffffffffffffffffffffffffffffffffffffc3601126106285773ffffffffffffffffffffffffffffffffffffffff610b23613207565b610b2b6138a8565b16807fffffffffffffffffffffffff00000000000000000000000000000000000000007f237e158222e3e6968b72b9db0d8043aacf074ad9f650f0d1606b4d82ee432c005416177f237e158222e3e6968b72b9db0d8043aacf074ad9f650f0d1606b4d82ee432c005573ffffffffffffffffffffffffffffffffffffffff7f9016d09d72d40fdae2fd8ceac6b6234c7706214fd39c1cd1e609a0528c19930054167f38d16b8cac22d99fc7c124b9cd0de2d3fa1faef420bfe791d8c362d765e227005f80a3005b34610628575f7ffffffffffffffffffffffffffffffffffffffffffffffffffffffffffffffffc36011261062857610c3f610c2b613349565b604051918291602083526020830190613193565b0390f35b346106285760207ffffffffffffffffffffffffffffffffffffffffffffffffffffffffffffffffc36011261062857610c7a61353d565b610c826135c8565b6004355f525f602052602073ffffffffffffffffffffffffffffffffffffffff60405f205416604051908152f35b34610628575f7ffffffffffffffffffffffffffffffffffffffffffffffffffffffffffffffffc36011261062857602073ffffffffffffffffffffffffffffffffffffffff7f237e158222e3e6968b72b9db0d8043aacf074ad9f650f0d1606b4d82ee432c005416604051908152f35b34610628575f7ffffffffffffffffffffffffffffffffffffffffffffffffffffffffffffffffc360112610628576020600f54604051908152f35b346106285760207ffffffffffffffffffffffffffffffffffffffffffffffffffffffffffffffffc360112610628576004355f52600d602052602060405f2054604051908152f35b346106285760207ffffffffffffffffffffffffffffffffffffffffffffffffffffffffffffffffc36011261062857600435610ddd6138a8565b610de561353d565b610ded6135c8565b600c549060a0821015610e30577f56005fa5e90a59dbd4f6ca6c3f6c7f2a5c6ee02b91a7c284a5b2b0fadd0979de9181604092600c5582519182526020820152a1005b7f09ed763b000000000000000000000000000000000000000000000000000000005f5260045ffd5b34610628575f7ffffffffffffffffffffffffffffffffffffffffffffffffffffffffffffffffc360112610628576020600e54604051908152f35b34610628575f7ffffffffffffffffffffffffffffffffffffffffffffffffffffffffffffffffc3601126106285760206040517f2aac7e77cd12cbd298b17ead9eaa884cf48f74168597938c3eff69faa8916c1c8152f35b34610628575f7ffffffffffffffffffffffffffffffffffffffffffffffffffffffffffffffffc3601126106285760206040517f07c4bff43a43b6464ec16455f7c5a3125e79b6ac0ca86a12fe9c406d160e16db8152f35b34610628575f7ffffffffffffffffffffffffffffffffffffffffffffffffffffffffffffffffc36011261062857610c3f604051610f826040826130dd565b600581527f352e302e300000000000000000000000000000000000000000000000000000006020820152604051918291602083526020830190613193565b346106285760807ffffffffffffffffffffffffffffffffffffffffffffffffffffffffffffffffc36011261062857610ff7613207565b60243567ffffffffffffffff8111610628576110179036906004016131d6565b90916044359167ffffffffffffffff83116106285761103d6110599336906004016131d6565b9160643595869461104c61353d565b6110546135c8565b613623565b604051907f143dc383000000000000000000000000000000000000000000000000000000008252600480830152602482015260208160448173__$c7624c4888816852df6e0282f8b23fc520$__5af48015610655576110bd575b6110bb613867565b005b6020813d6020116110e4575b816110d6602093836130dd565b8101031261062857516110b3565b3d91506110c9565b34610628576101007ffffffffffffffffffffffffffffffffffffffffffffffffffffffffffffffffc3601126106285760043561112761322a565b6044359060843560643560a43567ffffffffffffffff81116106285761115190369060040161324d565b9460c43567ffffffffffffffff8111610628576111729036906004016131d6565b95909460e4359761118161353d565b6111896135c8565b8315801561147c575b61145057835f52600260205260405f2054808a0361141c5750835f52600260205260405f206111c181546134f4565b905561123d60405160208101907f1e295893179f7aec6368e38c85d14db7b2240e83a9e07986186fc6ead056776c825286604082015273ffffffffffffffffffffffffffffffffffffffff85169b8c60608301528660808301528960a083015260c082015260c0815261123560e0826130dd565b5190206139f7565b90845f525f60205273ffffffffffffffffffffffffffffffffffffffff60405f2054169182156113f457611270926140f7565b156113cc5761127e90613c76565b815f52600360205260405f2061129481546134f4565b9055815f52600360205263ffffffff60405f20541696604051977f14df7aa40000000000000000000000000000000000000000000000000000000089528360048a015260248901525f604489015260208860648173__$225e2ffa2527dda1fe21010d34563c675a$__5af48015610655575f90611398575b6110bb9850815f52600160205260405f2055825f525f6020527401000000000000000000000000000000000000000073ffffffffffffffffffffffffffffffffffffffff60405f20541617835f525f60205260405f2055827f9b3aa6eeac5c65203941cffa64105ee92aec726f7e5802c1a12e84830df037d160408051878152886020820152a4613e22565b506020883d6020116113c4575b816113b2602093836130dd565b81010312610628576110bb975161130c565b3d91506113a5565b7f8baa579f000000000000000000000000000000000000000000000000000000005f5260045ffd5b7f47695d1a000000000000000000000000000000000000000000000000000000005f5260045ffd5b8990857fda721750000000000000000000000000000000000000000000000000000000005f5260045260245260445260645ffd5b837fd4a84737000000000000000000000000000000000000000000000000000000005f5260045260245ffd5b5083600a541115611192565b346106285760207ffffffffffffffffffffffffffffffffffffffffffffffffffffffffffffffffc360112610628576004355f526002602052602060405f2054604051908152f35b34610628576114de36613293565b6114ef99949693919892979961353d565b6114f76135c8565b600c549163ffffffff8b16928310156118d85761158d906115886040519573ffffffffffffffffffffffffffffffffffffffff60208801917f07c4bff43a43b6464ec16455f7c5a3125e79b6ac0ca86a12fe9c406d160e16db83528a60408a015216968760608201528660808201528860a08201528b60c08201528560e082015260e08152611235610100826130dd565b613a38565b91905073__$225e2ffa2527dda1fe21010d34563c675a$__91604051907f151542bf0000000000000000000000000000000000000000000000000000000082526004820152602081602481865af4908115610655575f916118a6575b508087036118785750855f52600260205260405f2054808203611846575050845f52600260205260405f2061161e81546134f4565b9055825f52600160205260405f2054801561181a576040517f151542bf000000000000000000000000000000000000000000000000000000008152816004820152602081602481865af4908115610655575f916117e8575b508681036117b957506020906024604051809481937fd6cce10e00000000000000000000000000000000000000000000000000000000835260048301525af480156106555763ffffffff915f9161178a575b501681810361175b57507f4ef351b773d029c9c6c0a4e36e2ed73b9fca07ea1344caa9ac75c1f9ee225b8a856110bb9a61172c8794865f5260016020525f60408120556001611722875f525f60205260405f205460a01c90565b911b191685613de5565b611753896040519384938460409194939263ffffffff606083019616825260208201520152565b0390a4613e22565b907f22c0ec40000000000000000000000000000000000000000000000000000000005f5260045260245260445ffd5b6117ac915060203d6020116117b2575b6117a481836130dd565b810190613521565b8b6116c8565b503d61179a565b867fc9969263000000000000000000000000000000000000000000000000000000005f5260045260245260445ffd5b90506020813d602011611812575b81611803602093836130dd565b8101031261062857518c611676565b3d91506117f6565b837f9389f4aa000000000000000000000000000000000000000000000000000000005f5260045260245ffd5b867fda721750000000000000000000000000000000000000000000000000000000005f5260045260245260445260645ffd5b867e59917a000000000000000000000000000000000000000000000000000000005f5260045260245260445ffd5b90506020813d6020116118d0575b816118c1602093836130dd565b8101031261062857518c6115e9565b3d91506118b4565b7f075aa3ca000000000000000000000000000000000000000000000000000000005f5260045ffd5b34610628576101407ffffffffffffffffffffffffffffffffffffffffffffffffffffffffffffffffc3601126106285760043561193b61322a565b6044359073ffffffffffffffffffffffffffffffffffffffff821692838303610628576064359363ffffffff851691828603610628576084359160a4359260c4359460e43567ffffffffffffffff81116106285761199d90369060040161324d565b916101043567ffffffffffffffff8111610628576119bf9036906004016131d6565b99909861012435916119cf61353d565b6119d76135c8565b87158015611e33575b611e075790611a0373ffffffffffffffffffffffffffffffffffffffff92613c76565b1693858514611ddf57600c548410156118d857611a849061158860405160208101907f2aac7e77cd12cbd298b17ead9eaa884cf48f74168597938c3eff69faa8916c1c82528a60408201528860608201528960808201528760a08201528660c08201528c60e0820152856101008201526101008152611235610120826130dd565b909173__$225e2ffa2527dda1fe21010d34563c675a$__926040517f151542bf000000000000000000000000000000000000000000000000000000008152836004820152602081602481885af4908115610655575f91611dad575b50808a03611d7f575073ffffffffffffffffffffffffffffffffffffffff16868103611d505750875f52600260205260405f2054808203611d1e575050865f52600260205260405f20611b3281546134f4565b9055604051907fd6cce10e0000000000000000000000000000000000000000000000000000000082526004820152602081602481855af480156106555763ffffffff915f91611cff575b5016838103611cd05750611b9b865f525f60205260405f205460a01c90565b6001841b1615611ca8575f84815260016020908152604080832083905588835260038252918290205491517f14df7aa40000000000000000000000000000000000000000000000000000000081526004810189905263ffffffff92831660248201529c90911660448d0152908b9060649082905af4998a15610655575f9a611c73575b50608085927fca55aaff3c8e1ee40b7c190ee740b5b0d87a1fad6232e773cfec9dd1490ab7cc926110bb9c875f52600160205260405f20556040519182526020820152876040820152886060820152a4613e22565b995060208a3d602011611ca0575b81611c8e602093836130dd565b81010312610628579851986080611c1e565b3d9150611c81565b7fec5a23cd000000000000000000000000000000000000000000000000000000005f5260045ffd5b837f22c0ec40000000000000000000000000000000000000000000000000000000005f5260045260245260445ffd5b611d18915060203d6020116117b2576117a481836130dd565b8d611b7c565b887fda721750000000000000000000000000000000000000000000000000000000005f5260045260245260445260645ffd5b867f7aa5e755000000000000000000000000000000000000000000000000000000005f5260045260245260445ffd5b897e59917a000000000000000000000000000000000000000000000000000000005f5260045260245260445ffd5b90506020813d602011611dd7575b81611dc8602093836130dd565b8101031261062857518f611adf565b3d9150611dbb565b7f20dc8563000000000000000000000000000000000000000000000000000000005f5260045ffd5b877fd4a84737000000000000000000000000000000000000000000000000000000005f5260045260245ffd5b5087600a5411156119e0565b34610628575f7ffffffffffffffffffffffffffffffffffffffffffffffffffffffffffffffffc36011261062857602073ffffffffffffffffffffffffffffffffffffffff7f9016d09d72d40fdae2fd8ceac6b6234c7706214fd39c1cd1e609a0528c1993005416604051908152f35b346106285760207ffffffffffffffffffffffffffffffffffffffffffffffffffffffffffffffffc360112610628576004355f526003602052602060405f2054604051908152f35b34610628575f7ffffffffffffffffffffffffffffffffffffffffffffffffffffffffffffffffc360112610628577fa16a46d94261c7517cc8ff89f61c0ce93598e3c849801011dee649a6a557d100541580612073575b1561201557611fb9611f5e613f13565b611f66614024565b6020611fc760405192611f7983856130dd565b5f84525f3681376040519586957f0f00000000000000000000000000000000000000000000000000000000000000875260e08588015260e0870190613193565b908582036040870152613193565b4660608501523060808501525f60a085015283810360c08501528180845192838152019301915f5b828110611ffe57505050500390f35b835185528695509381019392810192600101611fef565b60646040517f08c379a000000000000000000000000000000000000000000000000000000000815260206004820152601560248201527f4549503731323a20556e696e697469616c697a656400000000000000000000006044820152fd5b507fa16a46d94261c7517cc8ff89f61c0ce93598e3c849801011dee649a6a557d1015415611f4e565b34610628576120aa36613293565b919690976120bb999496939961353d565b6120c36135c8565b6120cc81613c76565b600c549263ffffffff8316938410156118d8576120f4865f525f60205260405f205460a01c90565b906001851b928383166123895760209c61158861218192604051602073ffffffffffffffffffffffffffffffffffffffff908201927f60597e08f2e19fa5ee86fac8557a1e5eaf43f8a133d74f96882423379457764084528d604084015216998a606083015260808201528a60a08201528d60c08201528560e082015260e08152611235610100826130dd565b905073__$225e2ffa2527dda1fe21010d34563c675a$__9c8d916024604051809481937f151542bf00000000000000000000000000000000000000000000000000000000835260048301525af4908115610655575f91612357575b508088036123295750865f52600260205260405f20548082036122f7575050855f52600260205260405f2061221181546134f4565b90555f868152600360209081526040918290205491517f14df7aa40000000000000000000000000000000000000000000000000000000081526004810189905263ffffffff92831660248201529185166044830152909b8c9060649082905af49a8b15610655575f9b6122c1575b50859261172c7f9439fef5c9ad2c236ddb93bc02d022ac707439dfe188af3adf8a7ce35cad83fe9389936110bb9e885f52600160205260405f20551785613de5565b929a506020833d6020116122ef575b816122dd602093836130dd565b8101031261062857915199918561227f565b3d91506122d0565b877fda721750000000000000000000000000000000000000000000000000000000005f5260045260245260445260645ffd5b877e59917a000000000000000000000000000000000000000000000000000000005f5260045260245260445ffd5b90506020813d602011612381575b81612372602093836130dd565b8101031261062857518d6121dc565b3d9150612365565b7f0e5ff1d1000000000000000000000000000000000000000000000000000000005f5260045ffd5b346106285760807ffffffffffffffffffffffffffffffffffffffffffffffffffffffffffffffffc360112610628576004356123eb61322a565b60443567ffffffffffffffff81116106285761240b90369060040161324d565b9160643561241761353d565b61241f6135c8565b8115801561263e575b6126125761249660405194611588602087017fbbd0a3fc5dab2d1335471dc1b74caba66d8bc91d0808618b3e0186d43ad300b5815285604089015273ffffffffffffffffffffffffffffffffffffffff8716978860608201528560808201526080815261123560a0826130dd565b9050604051907f151542bf000000000000000000000000000000000000000000000000000000008252600482015260208160248173__$225e2ffa2527dda1fe21010d34563c675a$__5af4908115610655575f916125e0575b508083036125b25750815f52600260205260405f2054808203612580575050805f52600260205260405f2061252481546134f4565b90555f8181526020819052604090205473ffffffffffffffffffffffffffffffffffffffff81169261255a9160a01c9083613c1b565b7fd0c08c8ccd033ac7af21880f3b4282196cb5c4e692f4e02e3e81e8de2dc342ba5f80a4005b827fda721750000000000000000000000000000000000000000000000000000000005f5260045260245260445260645ffd5b827e59917a000000000000000000000000000000000000000000000000000000005f5260045260245260445ffd5b90506020813d60201161260a575b816125fb602093836130dd565b810103126106285751856124ef565b3d91506125ee565b507fd4a84737000000000000000000000000000000000000000000000000000000005f5260045260245ffd5b5081600a541115612428565b34610628575f7ffffffffffffffffffffffffffffffffffffffffffffffffffffffffffffffffc360112610628573373ffffffffffffffffffffffffffffffffffffffff7f237e158222e3e6968b72b9db0d8043aacf074ad9f650f0d1606b4d82ee432c005416036126bf576110bb336138e8565b7f118cdaa7000000000000000000000000000000000000000000000000000000005f523360045260245ffd5b34610628575f7ffffffffffffffffffffffffffffffffffffffffffffffffffffffffffffffffc3601126106285761272161353d565b6127296135c8565b602061273361424b565b604051908152f35b346106285760207ffffffffffffffffffffffffffffffffffffffffffffffffffffffffffffffffc360112610628577fa63279eae22bff252c101e3cdc68b7a992867a5b6e5c21c03c2670d20c2f0d0460406004356127986138a8565b6127a061353d565b6127a86135c8565b600f549080600f5582519182526020820152a1005b34610628575f7ffffffffffffffffffffffffffffffffffffffffffffffffffffffffffffffffc360112610628576127f36138a8565b7fffffffffffffffffffffffff00000000000000000000000000000000000000007f237e158222e3e6968b72b9db0d8043aacf074ad9f650f0d1606b4d82ee432c0054167f237e158222e3e6968b72b9db0d8043aacf074ad9f650f0d1606b4d82ee432c00555f73ffffffffffffffffffffffffffffffffffffffff7f9016d09d72d40fdae2fd8ceac6b6234c7706214fd39c1cd1e609a0528c199300547fffffffffffffffffffffffff000000000000000000000000000000000000000081167f9016d09d72d40fdae2fd8ceac6b6234c7706214fd39c1cd1e609a0528c19930055167f8be0079c531659141344cd1fd0a4f28419497f9722a3daafe3b4186f6b6457e08280a3005b346106285760207ffffffffffffffffffffffffffffffffffffffffffffffffffffffffffffffffc3601126106285773ffffffffffffffffffffffffffffffffffffffff612949613207565b165f526001602052602060405f2054604051908152f35b34610628575f7ffffffffffffffffffffffffffffffffffffffffffffffffffffffffffffffffc3601126106285773ffffffffffffffffffffffffffffffffffffffff7f00000000000000000000000000000000000000000000000000000000000000001630036129f55760206040517f360894a13ba1a3210667c828492db98dca3e2076cc3735a920a3ca505d382bbc8152f35b7fe07c8dba000000000000000000000000000000000000000000000000000000005f5260045ffd5b60407ffffffffffffffffffffffffffffffffffffffffffffffffffffffffffffffffc36011261062857612a4f613207565b60243567ffffffffffffffff811161062857612a6f90369060040161324d565b612a7761353d565b612a7f6138a8565b73ffffffffffffffffffffffffffffffffffffffff8216916040517f52d1902d000000000000000000000000000000000000000000000000000000008152602081600481875afa5f9181612c67575b50612aff57837f4c9c8ce3000000000000000000000000000000000000000000000000000000005f5260045260245ffd5b807f360894a13ba1a3210667c828492db98dca3e2076cc3735a920a3ca505d382bbc859203612c3c5750813b15612c1157807fffffffffffffffffffffffff00000000000000000000000000000000000000007f360894a13ba1a3210667c828492db98dca3e2076cc3735a920a3ca505d382bbc5416177f360894a13ba1a3210667c828492db98dca3e2076cc3735a920a3ca505d382bbc557fbc7cd75a20ee27fd9adebab32041f755214dbc6bffa90cc0225b39da2e5c2d3b5f80a2815115612be0575f808360206110bb95519101845af4612bda6142b2565b9161455b565b505034612be957005b7fb398979f000000000000000000000000000000000000000000000000000000005f5260045ffd5b7f4c9c8ce3000000000000000000000000000000000000000000000000000000005f5260045260245ffd5b7faa1d49a4000000000000000000000000000000000000000000000000000000005f5260045260245ffd5b9091506020813d602011612c93575b81612c83602093836130dd565b8101031261062857519085612ace565b3d9150612c76565b34610628575f7ffffffffffffffffffffffffffffffffffffffffffffffffffffffffffffffffc3601126106285760206040517f60597e08f2e19fa5ee86fac8557a1e5eaf43f8a133d74f9688242337945776408152f35b346106285760807ffffffffffffffffffffffffffffffffffffffffffffffffffffffffffffffffc3601126106285760043567ffffffffffffffff811161062857612d429036906004016131d6565b9060243567ffffffffffffffff811161062857612d639036906004016131d6565b919060443567ffffffffffffffff811161062857612d859036906004016131d6565b9060643567ffffffffffffffff811161062857612da69036906004016131d6565b959096612db161353d565b612db96135c8565b8015612ec857818103612ea057838103612ea057868103612ea0575f5b818110612e4f57604080517f3cdb41dc000000000000000000000000000000000000000000000000000000008152600480820152602481019190915260208180612e24604482018d8f6134b7565b038173__$c7624c4888816852df6e0282f8b23fc520$__5af48015610655576110bd576110bb613867565b80612e9a878a8c8989612e93878f81612e83818f8f60019f612e7890612e7d92612e8b986133f6565b613433565b9b613454565b969095613454565b9690956133f6565b3594613623565b01612dd6565b7f93449531000000000000000000000000000000000000000000000000000000005f5260045ffd5b7f39282800000000000000000000000000000000000000000000000000000000005f5260045ffd5b34610628575f7ffffffffffffffffffffffffffffffffffffffffffffffffffffffffffffffffc36011261062857610c3f610c2b613158565b34610628575f7ffffffffffffffffffffffffffffffffffffffffffffffffffffffffffffffffc3601126106285760206040517f1e295893179f7aec6368e38c85d14db7b2240e83a9e07986186fc6ead056776c8152f35b346106285760207ffffffffffffffffffffffffffffffffffffffffffffffffffffffffffffffffc36011261062857612fb861353d565b612fc06135c8565b6020612fcd600435613384565b6040519015158152f35b34610628575f7ffffffffffffffffffffffffffffffffffffffffffffffffffffffffffffffffc3601126106285760206040517fbbd0a3fc5dab2d1335471dc1b74caba66d8bc91d0808618b3e0186d43ad300b58152f35b34610628575f7ffffffffffffffffffffffffffffffffffffffffffffffffffffffffffffffffc360112610628576020600b54604051908152f35b34610628575f7ffffffffffffffffffffffffffffffffffffffffffffffffffffffffffffffffc360112610628576020600a54604051908152f35b34610628575f7ffffffffffffffffffffffffffffffffffffffffffffffffffffffffffffffffc36011261062857602090600c548152f35b90601f7fffffffffffffffffffffffffffffffffffffffffffffffffffffffffffffffe0910116810190811067ffffffffffffffff8211176107f757604052565b67ffffffffffffffff81116107f757601f017fffffffffffffffffffffffffffffffffffffffffffffffffffffffffffffffe01660200190565b604051906131676040836130dd565b600f82527f576f726c644944526567697374727900000000000000000000000000000000006020830152565b907fffffffffffffffffffffffffffffffffffffffffffffffffffffffffffffffe0601f602080948051918291828752018686015e5f8582860101520116010190565b9181601f840112156106285782359167ffffffffffffffff8311610628576020808501948460051b01011161062857565b6004359073ffffffffffffffffffffffffffffffffffffffff8216820361062857565b6024359073ffffffffffffffffffffffffffffffffffffffff8216820361062857565b81601f82011215610628578035906132648261311e565b9261327260405194856130dd565b8284526020838301011161062857815f926020809301838601378301015290565b906101207ffffffffffffffffffffffffffffffffffffffffffffffffffffffffffffffffc830112610628576004359160243573ffffffffffffffffffffffffffffffffffffffff81168103610628579160443563ffffffff811681036106285791606435916084359160a4359160c43567ffffffffffffffff811161062857826133209160040161324d565b9160e4359067ffffffffffffffff821161062857613340916004016131d6565b90916101043590565b604051906133586040836130dd565b600382527f312e3000000000000000000000000000000000000000000000000000000000006020830152565b600e5481146133f0575f52600d60205260405f205480156133eb57600f5480156133e45781018091116133b75742111590565b7f4e487b71000000000000000000000000000000000000000000000000000000005f52601160045260245ffd5b5050600190565b505f90565b50600190565b91908110156134065760051b0190565b7f4e487b71000000000000000000000000000000000000000000000000000000005f52603260045260245ffd5b3573ffffffffffffffffffffffffffffffffffffffff811681036106285790565b91908110156134065760051b810135907fffffffffffffffffffffffffffffffffffffffffffffffffffffffffffffffe18136030182121561062857019081359167ffffffffffffffff8311610628576020018260051b36038113610628579190565b90918281527f07ffffffffffffffffffffffffffffffffffffffffffffffffffffffffffffff83116106285760209260051b809284830137010190565b7fffffffffffffffffffffffffffffffffffffffffffffffffffffffffffffffff81146133b75760010190565b90816020910312610628575163ffffffff811681036106285790565b73ffffffffffffffffffffffffffffffffffffffff7f000000000000000000000000000000000000000000000000000000000000000016803014908115613586575b506129f557565b905073ffffffffffffffffffffffffffffffffffffffff7f360894a13ba1a3210667c828492db98dca3e2076cc3735a920a3ca505d382bbc541614155f61357f565b67ffffffffffffffff7ff0c57e16840df040f15088dc2f81fe391c3923bec73e23a9662efc9c229c6a005416156135fb57565b7f0206032a000000000000000000000000000000000000000000000000000000005f5260045ffd5b91929493600c5484116118d8578315612ec857808403612ea05794919290600a549586935f5f73__$225e2ffa2527dda1fe21010d34563c675a$__5b868210613754575050613673908787613c1b565b60405193806060860160608752526080850193905f905b8082106136fb57505050946136e08373ffffffffffffffffffffffffffffffffffffffff937f103b94e83eb9d97b8f0092abf485c34463538b256530b19a8585dd5b80a5d0b197988780970360208801526134b7565b96604084015216940390a3600181018091116133b757600a55565b919597965091929385359073ffffffffffffffffffffffffffffffffffffffff82168203610628576020809173ffffffffffffffffffffffffffffffffffffffff6001941681520196019201899697959493929161368a565b91909293949597965061376b612e78848a896133f6565b9073ffffffffffffffffffffffffffffffffffffffff821691821561383f5761379390613c76565b604051917f14df7aa40000000000000000000000000000000000000000000000000000000083528b60048401525f602484015263ffffffff85166044840152602083606481875af4908115610655575f9161380b575b600193505f528260205260405f205581841b179201899697959493929161365f565b90506020833d8211613837575b81613825602093836130dd565b810103126106285760019251906137e9565b3d9150613818565b7fd92e233d000000000000000000000000000000000000000000000000000000005f5260045ffd5b600554805f52600d6020524260405f205580600e557f354c97d4498b3e88bd976788b89a3b2d5090140351a9eb813706398148e9c8816020604051428152a2565b73ffffffffffffffffffffffffffffffffffffffff7f9016d09d72d40fdae2fd8ceac6b6234c7706214fd39c1cd1e609a0528c199300541633036126bf57565b7fffffffffffffffffffffffff00000000000000000000000000000000000000007f237e158222e3e6968b72b9db0d8043aacf074ad9f650f0d1606b4d82ee432c0054167f237e158222e3e6968b72b9db0d8043aacf074ad9f650f0d1606b4d82ee432c005573ffffffffffffffffffffffffffffffffffffffff807f9016d09d72d40fdae2fd8ceac6b6234c7706214fd39c1cd1e609a0528c19930054921691827fffffffffffffffffffffffff00000000000000000000000000000000000000008216177f9016d09d72d40fdae2fd8ceac6b6234c7706214fd39c1cd1e609a0528c19930055167f8be0079c531659141344cd1fd0a4f28419497f9722a3daafe3b4186f6b6457e05f80a3565b604290613a0261424b565b90604051917f19010000000000000000000000000000000000000000000000000000000000008352600283015260228201522090565b613a4f9291613a46916142e1565b90939193614421565b73ffffffffffffffffffffffffffffffffffffffff8216908115613bf357815f52600160205260405f2054918215613bc8575073__$225e2ffa2527dda1fe21010d34563c675a$__604051907f151542bf000000000000000000000000000000000000000000000000000000008252836004830152602082602481845af4918215610655575f92613b93575b506020602491604051928380927f886684880000000000000000000000000000000000000000000000000000000082528860048301525af480156106555763ffffffff915f91613b74575b501690805f52600360205260405f205490818303613b4357505050565b7feb3f6f18000000000000000000000000000000000000000000000000000000005f5260045260245260445260645ffd5b613b8d915060203d6020116117b2576117a481836130dd565b5f613b26565b9091506020813d602011613bc0575b81613baf602093836130dd565b810103126106285751906020613adb565b3d9150613ba2565b7f9389f4aa000000000000000000000000000000000000000000000000000000005f5260045260245ffd5b7f2c9b945f000000000000000000000000000000000000000000000000000000005f5260045ffd5b90918060601c613c4e5773ffffffffffffffffffffffffffffffffffffffff915f525f60205260a01b91161760405f2055565b7f11974caa000000000000000000000000000000000000000000000000000000005f5260045ffd5b73ffffffffffffffffffffffffffffffffffffffff16801561383f57805f52600160205260405f205480613ca8575050565b73__$225e2ffa2527dda1fe21010d34563c675a$__90604051907f151542bf000000000000000000000000000000000000000000000000000000008252806004830152602082602481865af4918215610655575f92613db0575b506020906024604051809581937f8866848800000000000000000000000000000000000000000000000000000000835260048301525af4918215610655575f92613d8f575b505f52600360205263ffffffff60405f205491161015613d645750565b7f218170d3000000000000000000000000000000000000000000000000000000005f5260045260245ffd5b613da991925060203d6020116117b2576117a481836130dd565b905f613d47565b9091506020813d602011613ddd575b81613dcc602093836130dd565b810103126106285751906020613d02565b3d9150613dbf565b908060601c613c4e57815f525f60205273ffffffffffffffffffffffffffffffffffffffff60405f205416915f525f60205260a01b1760405f2055565b9073__$c7624c4888816852df6e0282f8b23fc520$__91823b1561062857613e985f95604051978896879586957fd3bb8c5700000000000000000000000000000000000000000000000000000000875260048088015260248701526044860152606485015260a0608485015260a48401916134b7565b03915af4801561065557613eb2575b50613eb0613867565b565b5f613ebc916130dd565b5f613ea7565b90600182811c92168015613f09575b6020831014613edc57565b7f4e487b71000000000000000000000000000000000000000000000000000000005f52602260045260245ffd5b91607f1691613ed1565b604051905f827fa16a46d94261c7517cc8ff89f61c0ce93598e3c849801011dee649a6a557d1025491613f4583613ec2565b8083529260018116908115613fe75750600114613f69575b613eb0925003836130dd565b507fa16a46d94261c7517cc8ff89f61c0ce93598e3c849801011dee649a6a557d1025f90815290917f42ad5d3e1f2e6e70edcf6d991b8a3023d3fca8047a131592f9edb9fd9b89d57d5b818310613fcb575050906020613eb092820101613f5d565b6020919350806001915483858901015201910190918492613fb3565b60209250613eb09491507fffffffffffffffffffffffffffffffffffffffffffffffffffffffffffffff001682840152151560051b820101613f5d565b604051905f827fa16a46d94261c7517cc8ff89f61c0ce93598e3c849801011dee649a6a557d103549161405683613ec2565b8083529260018116908115613fe7575060011461407957613eb0925003836130dd565b507fa16a46d94261c7517cc8ff89f61c0ce93598e3c849801011dee649a6a557d1035f90815290917f5f9ce34815f8e11431c7bb75a8e6886a91478f7ffc1dbb0a98dc240fddd76b755b8183106140db575050906020613eb092820101613f5d565b60209193508060019154838589010152019101909184926140c3565b9190823b61416c5790614109916142e1565b50600481101561413f5715918261411f57505090565b73ffffffffffffffffffffffffffffffffffffffff919250811691161490565b7f4e487b71000000000000000000000000000000000000000000000000000000005f52602160045260245ffd5b915f926141bb6141e7859460405192839160208301957f1626ba7e0000000000000000000000000000000000000000000000000000000087526024840152604060448401526064830190613193565b037fffffffffffffffffffffffffffffffffffffffffffffffffffffffffffffffe081018352826130dd565b51915afa6141f36142b2565b8161423d575b81614202575090565b805160208083019350908201919091031261062857517f1626ba7e000000000000000000000000000000000000000000000000000000001490565b9050602081511015906141f9565b614253614372565b61425b6143dc565b6040519060208201927f8b73c3c69bb8fe3d512ecc4cf759cc79239f7b179b0ffacaa9a75d522b39400f8452604083015260608201524660808201523060a082015260a081526142ac60c0826130dd565b51902090565b3d156142dc573d906142c38261311e565b916142d160405193846130dd565b82523d5f602084013e565b606090565b81519190604183036143115761430a9250602082015190606060408401519301515f1a906144cc565b9192909190565b50505f9160029190565b60ff7ff0c57e16840df040f15088dc2f81fe391c3923bec73e23a9662efc9c229c6a005460401c161561434a57565b7fd7e6bcf8000000000000000000000000000000000000000000000000000000005f5260045ffd5b61437a613f13565b805190811561438a576020012090565b50507fa16a46d94261c7517cc8ff89f61c0ce93598e3c849801011dee649a6a557d1005480156143b75790565b507fc5d2460186f7233c927e7db2dcc703c0e500b653ca82273b7bfad8045d85a47090565b6143e4614024565b80519081156143f4576020012090565b50507fa16a46d94261c7517cc8ff89f61c0ce93598e3c849801011dee649a6a557d1015480156143b75790565b600481101561413f5780614433575050565b60018103614463577ff645eedf000000000000000000000000000000000000000000000000000000005f5260045ffd5b6002810361449757507ffce698f7000000000000000000000000000000000000000000000000000000005f5260045260245ffd5b6003146144a15750565b7fd78bce0c000000000000000000000000000000000000000000000000000000005f5260045260245ffd5b91907f7fffffffffffffffffffffffffffffff5d576e7357a4501ddfe92f46681b20a08411614550579160209360809260ff5f9560405194855216868401526040830152606082015282805260015afa15610655575f5173ffffffffffffffffffffffffffffffffffffffff81161561454657905f905f90565b505f906001905f90565b5050505f9160039190565b90614598575080511561457057602081519101fd5b7fd6bda275000000000000000000000000000000000000000000000000000000005f5260045ffd5b815115806145eb575b6145a9575090565b73ffffffffffffffffffffffffffffffffffffffff907f9996b315000000000000000000000000000000000000000000000000000000005f521660045260245ffd5b50803b156145a156fea26469706673582212201952db65e4c9e5018bad10259560cb03ef2957e69732059032bcbdb707d4668264736f6c634300081e0033f0c57e16840df040f15088dc2f81fe391c3923bec73e23a9662efc9c229c6a00","linkReferences":{"src/lib/PackedAccountData.sol":{"PackedAccountData":[{"start":5041,"length":20},{"start":5721,"length":20},{"start":6991,"length":20},{"start":8780,"length":20},{"start":9619,"length":20},{"start":14098,"length":20},{"start":15179,"length":20},{"start":15729,"length":20}]},"src/tree/BinaryIMT.sol":{"BinaryIMT":[{"start":1387,"length":20},{"start":4442,"length":20},{"start":12015,"length":20},{"start":16108,"length":20}]}}},"methodIdentifiers":{"EIP712_NAME()":"3b2fb7a8","EIP712_VERSION()":"eccec5a8","INSERT_AUTHENTICATOR_TYPEHASH()":"4b452b5c","RECOVER_ACCOUNT_TYPEHASH()":"2d162435","REMOVE_AUTHENTICATOR_TYPEHASH()":"bb34342b","UPDATE_AUTHENTICATOR_TYPEHASH()":"cdb474b7","UPDATE_RECOVERY_ADDRESS_TYPEHASH()":"1bda592f","UPGRADE_INTERFACE_VERSION()":"ad3cb1cc","acceptOwnership()":"79ba5097","authenticatorAddressToPackedAccountData(address)":"697bff19","createAccount(address,address[],uint256[],uint256)":"9b075735","createManyAccounts(address[],address[][],uint256[][],uint256[])":"3e4ea828","currentRoot()":"fdab463d","domainSeparatorV4()":"78e890ba","eip712Domain()":"84b0196e","getRecoveryAddress(uint256)":"e710c52d","initialize(uint256)":"fe4b84df","insertAuthenticator(uint256,address,uint32,uint256,uint256,uint256,bytes,uint256[],uint256)":"82ba8229","isValidRoot(uint256)":"2cdabbce","latestRoot()":"d7b0fef1","leafIndexToRecoveryCounter(uint256)":"8a409f9b","leafIndexToSignatureNonce(uint256)":"94a10d67","maxAuthenticators()":"043e28b0","nextLeafIndex()":"0be4f422","owner()":"8da5cb5b","pendingOwner()":"e30c3978","proxiableUUID()":"52d1902d","recoverAccount(uint256,address,uint256,uint256,uint256,bytes,uint256[],uint256)":"97e10feb","removeAuthenticator(uint256,address,uint32,uint256,uint256,uint256,bytes,uint256[],uint256)":"9302579a","renounceOwnership()":"715018a6","rootToTimestamp(uint256)":"dff63719","rootValidityWindow()":"e1f30df5","setMaxAuthenticators(uint256)":"d816ea45","setRootValidityWindow(uint256)":"75a2f956","transferOwnership(address)":"f2fde38b","tree()":"fd54b228","treeDepth()":"16a56c41","updateAuthenticator(uint256,address,address,uint32,uint256,uint256,uint256,bytes,uint256[],uint256)":"92f3e842","updateRecoveryAddress(uint256,address,bytes,uint256)":"7d4ca23a","upgradeToAndCall(address,bytes)":"4f1ef286"},"id":52}