{"abi":[{"type":"constructor","inputs":[],"stateMutability":"nonpayable"},{"type":"function","name":"EIP712_NAME","inputs":[],"outputs":[{"name":"","type":"string","internalType":"string"}],"stateMutability":"view"},{"type":"function","name":"EIP712_VERSION","inputs":[],"outputs":[{"name":"","type":"string","internalType":"string"}],"stateMutability":"view"},{"type":"function","name":"PUBKEY_TYPEDEF","inputs":[],"outputs":[{"name":"","type":"string","internalType":"string"}],"stateMutability":"view"},{"type":"function","name":"PUBKEY_TYPEHASH","inputs":[],"outputs":[{"name":"","type":"bytes32","internalType":"bytes32"}],"stateMutability":"view"},{"type":"function","name":"REMOVE_ISSUER_SCHEMA_TYPEDEF","inputs":[],"outputs":[{"name":"","type":"string","internalType":"string"}],"stateMutability":"view"},{"type":"function","name":"REMOVE_ISSUER_SCHEMA_TYPEHASH","inputs":[],"outputs":[{"name":"","type":"bytes32","internalType":"bytes32"}],"stateMutability":"view"},{"type":"function","name":"UPDATE_ISSUER_SCHEMA_URI_TYPEDEF","inputs":[],"outputs":[{"name":"","type":"string","internalType":"string"}],"stateMutability":"view"},{"type":"function","name":"UPDATE_ISSUER_SCHEMA_URI_TYPEHASH","inputs":[],"outputs":[{"name":"","type":"bytes32","internalType":"bytes32"}],"stateMutability":"view"},{"type":"function","name":"UPDATE_PUBKEY_TYPEDEF","inputs":[],"outputs":[{"name":"","type":"string","internalType":"string"}],"stateMutability":"view"},{"type":"function","name":"UPDATE_PUBKEY_TYPEHASH","inputs":[],"outputs":[{"name":"","type":"bytes32","internalType":"bytes32"}],"stateMutability":"view"},{"type":"function","name":"UPDATE_SIGNER_TYPEDEF","inputs":[],"outputs":[{"name":"","type":"string","internalType":"string"}],"stateMutability":"view"},{"type":"function","name":"UPDATE_SIGNER_TYPEHASH","inputs":[],"outputs":[{"name":"","type":"bytes32","internalType":"bytes32"}],"stateMutability":"view"},{"type":"function","name":"UPGRADE_INTERFACE_VERSION","inputs":[],"outputs":[{"name":"","type":"string","internalType":"string"}],"stateMutability":"view"},{"type":"function","name":"acceptOwnership","inputs":[],"outputs":[],"stateMutability":"nonpayable"},{"type":"function","name":"eip712Domain","inputs":[],"outputs":[{"name":"fields","type":"bytes1","internalType":"bytes1"},{"name":"name","type":"string","internalType":"string"},{"name":"version","type":"string","internalType":"string"},{"name":"chainId","type":"uint256","internalType":"uint256"},{"name":"verifyingContract","type":"address","internalType":"address"},{"name":"salt","type":"bytes32","internalType":"bytes32"},{"name":"extensions","type":"uint256[]","internalType":"uint256[]"}],"stateMutability":"view"},{"type":"function","name":"getIssuerSchemaUri","inputs":[{"name":"issuerSchemaId","type":"uint256","internalType":"uint256"}],"outputs":[{"name":"","type":"string","internalType":"string"}],"stateMutability":"view"},{"type":"function","name":"getSignerForIssuerSchemaId","inputs":[{"name":"issuerSchemaId","type":"uint256","internalType":"uint256"}],"outputs":[{"name":"","type":"address","internalType":"address"}],"stateMutability":"view"},{"type":"function","name":"idToSchemaUri","inputs":[{"name":"","type":"uint256","internalType":"uint256"}],"outputs":[{"name":"","type":"string","internalType":"string"}],"stateMutability":"view"},{"type":"function","name":"initialize","inputs":[],"outputs":[],"stateMutability":"nonpayable"},{"type":"function","name":"issuerSchemaIdToPubkey","inputs":[{"name":"issuerSchemaId","type":"uint256","internalType":"uint256"}],"outputs":[{"name":"","type":"tuple","internalType":"struct CredentialSchemaIssuerRegistry.Pubkey","components":[{"name":"x","type":"uint256","internalType":"uint256"},{"name":"y","type":"uint256","internalType":"uint256"}]}],"stateMutability":"view"},{"type":"function","name":"nextIssuerSchemaId","inputs":[],"outputs":[{"name":"","type":"uint256","internalType":"uint256"}],"stateMutability":"view"},{"type":"function","name":"nonceOf","inputs":[{"name":"issuerSchemaId","type":"uint256","internalType":"uint256"}],"outputs":[{"name":"","type":"uint256","internalType":"uint256"}],"stateMutability":"view"},{"type":"function","name":"owner","inputs":[],"outputs":[{"name":"","type":"address","internalType":"address"}],"stateMutability":"view"},{"type":"function","name":"pendingOwner","inputs":[],"outputs":[{"name":"","type":"address","internalType":"address"}],"stateMutability":"view"},{"type":"function","name":"proxiableUUID","inputs":[],"outputs":[{"name":"","type":"bytes32","internalType":"bytes32"}],"stateMutability":"view"},{"type":"function","name":"register","inputs":[{"name":"pubkey","type":"tuple","internalType":"struct CredentialSchemaIssuerRegistry.Pubkey","components":[{"name":"x","type":"uint256","internalType":"uint256"},{"name":"y","type":"uint256","internalType":"uint256"}]},{"name":"signer","type":"address","internalType":"address"}],"outputs":[{"name":"","type":"uint256","internalType":"uint256"}],"stateMutability":"nonpayable"},{"type":"function","name":"remove","inputs":[{"name":"issuerSchemaId","type":"uint256","internalType":"uint256"},{"name":"signature","type":"bytes","internalType":"bytes"}],"outputs":[],"stateMutability":"nonpayable"},{"type":"function","name":"renounceOwnership","inputs":[],"outputs":[],"stateMutability":"nonpayable"},{"type":"function","name":"transferOwnership","inputs":[{"name":"newOwner","type":"address","internalType":"address"}],"outputs":[],"stateMutability":"nonpayable"},{"type":"function","name":"updateIssuerSchemaUri","inputs":[{"name":"issuerSchemaId","type":"uint256","internalType":"uint256"},{"name":"schemaUri","type":"string","internalType":"string"},{"name":"signature","type":"bytes","internalType":"bytes"}],"outputs":[],"stateMutability":"nonpayable"},{"type":"function","name":"updatePubkey","inputs":[{"name":"issuerSchemaId","type":"uint256","internalType":"uint256"},{"name":"newPubkey","type":"tuple","internalType":"struct CredentialSchemaIssuerRegistry.Pubkey","components":[{"name":"x","type":"uint256","internalType":"uint256"},{"name":"y","type":"uint256","internalType":"uint256"}]},{"name":"signature","type":"bytes","internalType":"bytes"}],"outputs":[],"stateMutability":"nonpayable"},{"type":"function","name":"updateSigner","inputs":[{"name":"issuerSchemaId","type":"uint256","internalType":"uint256"},{"name":"newSigner","type":"address","internalType":"address"},{"name":"signature","type":"bytes","internalType":"bytes"}],"outputs":[],"stateMutability":"nonpayable"},{"type":"function","name":"upgradeToAndCall","inputs":[{"name":"newImplementation","type":"address","internalType":"address"},{"name":"data","type":"bytes","internalType":"bytes"}],"outputs":[],"stateMutability":"payable"},{"type":"event","name":"EIP712DomainChanged","inputs":[],"anonymous":false},{"type":"event","name":"Initialized","inputs":[{"name":"version","type":"uint64","indexed":false,"internalType":"uint64"}],"anonymous":false},{"type":"event","name":"IssuerSchemaPubkeyUpdated","inputs":[{"name":"issuerSchemaId","type":"uint256","indexed":true,"internalType":"uint256"},{"name":"oldPubkey","type":"tuple","indexed":false,"internalType":"struct CredentialSchemaIssuerRegistry.Pubkey","components":[{"name":"x","type":"uint256","internalType":"uint256"},{"name":"y","type":"uint256","internalType":"uint256"}]},{"name":"newPubkey","type":"tuple","indexed":false,"internalType":"struct CredentialSchemaIssuerRegistry.Pubkey","components":[{"name":"x","type":"uint256","internalType":"uint256"},{"name":"y","type":"uint256","internalType":"uint256"}]}],"anonymous":false},{"type":"event","name":"IssuerSchemaRegistered","inputs":[{"name":"issuerSchemaId","type":"uint256","indexed":true,"internalType":"uint256"},{"name":"pubkey","type":"tuple","indexed":false,"internalType":"struct CredentialSchemaIssuerRegistry.Pubkey","components":[{"name":"x","type":"uint256","internalType":"uint256"},{"name":"y","type":"uint256","internalType":"uint256"}]},{"name":"signer","type":"address","indexed":false,"internalType":"address"}],"anonymous":false},{"type":"event","name":"IssuerSchemaRemoved","inputs":[{"name":"issuerSchemaId","type":"uint256","indexed":true,"internalType":"uint256"},{"name":"pubkey","type":"tuple","indexed":false,"internalType":"struct CredentialSchemaIssuerRegistry.Pubkey","components":[{"name":"x","type":"uint256","internalType":"uint256"},{"name":"y","type":"uint256","internalType":"uint256"}]},{"name":"signer","type":"address","indexed":false,"internalType":"address"}],"anonymous":false},{"type":"event","name":"IssuerSchemaSignerUpdated","inputs":[{"name":"issuerSchemaId","type":"uint256","indexed":true,"internalType":"uint256"},{"name":"oldSigner","type":"address","indexed":false,"internalType":"address"},{"name":"newSigner","type":"address","indexed":false,"internalType":"address"}],"anonymous":false},{"type":"event","name":"IssuerSchemaUpdated","inputs":[{"name":"issuerSchemaId","type":"uint256","indexed":true,"internalType":"uint256"},{"name":"oldSchemaUri","type":"string","indexed":false,"internalType":"string"},{"name":"newSchemaUri","type":"string","indexed":false,"internalType":"string"}],"anonymous":false},{"type":"event","name":"OwnershipTransferStarted","inputs":[{"name":"previousOwner","type":"address","indexed":true,"internalType":"address"},{"name":"newOwner","type":"address","indexed":true,"internalType":"address"}],"anonymous":false},{"type":"event","name":"OwnershipTransferred","inputs":[{"name":"previousOwner","type":"address","indexed":true,"internalType":"address"},{"name":"newOwner","type":"address","indexed":true,"internalType":"address"}],"anonymous":false},{"type":"event","name":"Upgraded","inputs":[{"name":"implementation","type":"address","indexed":true,"internalType":"address"}],"anonymous":false},{"type":"error","name":"AddressEmptyCode","inputs":[{"name":"target","type":"address","internalType":"address"}]},{"type":"error","name":"ERC1967InvalidImplementation","inputs":[{"name":"implementation","type":"address","internalType":"address"}]},{"type":"error","name":"ERC1967NonPayable","inputs":[]},{"type":"error","name":"FailedCall","inputs":[]},{"type":"error","name":"ImplementationNotInitialized","inputs":[]},{"type":"error","name":"InvalidInitialization","inputs":[]},{"type":"error","name":"InvalidPubkey","inputs":[]},{"type":"error","name":"InvalidSignature","inputs":[]},{"type":"error","name":"NotInitializing","inputs":[]},{"type":"error","name":"OwnableInvalidOwner","inputs":[{"name":"owner","type":"address","internalType":"address"}]},{"type":"error","name":"OwnableUnauthorizedAccount","inputs":[{"name":"account","type":"address","internalType":"address"}]},{"type":"error","name":"SchemaUriIsTheSameAsCurrentOne","inputs":[]},{"type":"error","name":"UUPSUnauthorizedCallContext","inputs":[]},{"type":"error","name":"UUPSUnsupportedProxiableUUID","inputs":[{"name":"slot","type":"bytes32","internalType":"bytes32"}]}],"bytecode":{"object":"0x60a080604052346100c7573060805260016002555f51602061351f5f395f51905f525460ff8160401c166100b8576002600160401b03196001600160401b03821601610065575b60405161345390816100cc82396080518181816117240152612d800152f35b6001600160401b0319166001600160401b039081175f51602061351f5f395f51905f525581527fc7f505b2f371ae2175ee4913f4499e1f2633a7b5936321eed1cdaeb6115181d290602090a15f80610046565b63f92ee8a960e01b5f5260045ffd5b5f80fdfe60806040526004361015610011575f80fd5b5f3560e01c806313d28f8114612242578063172371301461220957806325fdede314611dbb57806330bd1ba814611d83578063321ab85f14611b6f5780633b2fb7a814611b365780633cd897b614611afd57806346a204ce14611ab557806346b0d4f714611a2b5780634f1ef2861461179c57806352d1902d146116df5780636ccbae5f14611687578063715018a61461154757806379ba5097146114a65780638129fc1c14610d95578063837338ad14610d5d57806384b0196e14610bb85780638da5cb5b14610b48578063a880f21314610ada578063a96006ff14610870578063ad3cb1cc146107f3578063ae67c8ff146107ba578063b9c37f8714610781578063d284c3fa14610749578063d406d8a614610711578063e008f02214610480578063e30c397814610410578063eccec5a8146103d7578063ed9e21b71461037f578063f10483711461033f578063f2fde38b14610224578063f3c0e660146101d35763f71e63ec14610184575f80fd5b346101cf575f7ffffffffffffffffffffffffffffffffffffffffffffffffffffffffffffffffc3601126101cf576101ba612d69565b6101c2612df4565b6020600254604051908152f35b5f80fd5b346101cf575f7ffffffffffffffffffffffffffffffffffffffffffffffffffffffffffffffffc3601126101cf5761022061020c612710565b604051918291602083526020830190612697565b0390f35b346101cf5760207ffffffffffffffffffffffffffffffffffffffffffffffffffffffffffffffffc3601126101cf5773ffffffffffffffffffffffffffffffffffffffff610270612528565b61027861302c565b16807fffffffffffffffffffffffff00000000000000000000000000000000000000007f237e158222e3e6968b72b9db0d8043aacf074ad9f650f0d1606b4d82ee432c005416177f237e158222e3e6968b72b9db0d8043aacf074ad9f650f0d1606b4d82ee432c005573ffffffffffffffffffffffffffffffffffffffff7f9016d09d72d40fdae2fd8ceac6b6234c7706214fd39c1cd1e609a0528c19930054167f38d16b8cac22d99fc7c124b9cd0de2d3fa1faef420bfe791d8c362d765e227005f80a3005b346101cf575f7ffffffffffffffffffffffffffffffffffffffffffffffffffffffffffffffffc3601126101cf576020610377612cb9565b604051908152f35b346101cf5760207ffffffffffffffffffffffffffffffffffffffffffffffffffffffffffffffffc3601126101cf576103b6612d69565b6103be612df4565b6004355f52600460205261022061020c60405f20612ac2565b346101cf575f7ffffffffffffffffffffffffffffffffffffffffffffffffffffffffffffffffc3601126101cf5761022061020c612c7e565b346101cf575f7ffffffffffffffffffffffffffffffffffffffffffffffffffffffffffffffffc3601126101cf57602073ffffffffffffffffffffffffffffffffffffffff7f237e158222e3e6968b72b9db0d8043aacf074ad9f650f0d1606b4d82ee432c005416604051908152f35b346101cf5760407ffffffffffffffffffffffffffffffffffffffffffffffffffffffffffffffffc3601126101cf5760043560243567ffffffffffffffff81116101cf576104d56105ca91369060040161254b565b6104e0929192612d69565b6104e8612df4565b835f525f60205260405f209260016040519461050386612579565b805486520154602085015261052061051a85612e4f565b15612cc1565b6105c461059861052e612cb9565b875f52600360205261056461059060405f20546040519283918c6020840196876040919493926060820195825260208201520152565b037fffffffffffffffffffffffffffffffffffffffffffffffffffffffffffffffe08101835282612595565b519020612e67565b91865f52600160205273ffffffffffffffffffffffffffffffffffffffff60405f2054169336916126da565b91612f04565b156106e9575f8281526001602090815260409182902054825184518152938201519184019190915273ffffffffffffffffffffffffffffffffffffffff169082015281907f11a17aec8a4ae8e391c037880c2786ba3114441976eada8c38699aa51d9f29a190606090a2805f52600360205260405f2061064a8154612d26565b9055805f525f6020525f6001604082208281550155805f52600160205260405f207fffffffffffffffffffffffff000000000000000000000000000000000000000081541690555f52600460205260405f206106a6815461288b565b90816106ae57005b81601f5f93116001146106c05750555b005b818352602083206106dc91601f0160051c810190600101612d53565b8082528160208120915555005b7f8baa579f000000000000000000000000000000000000000000000000000000005f5260045ffd5b346101cf575f7ffffffffffffffffffffffffffffffffffffffffffffffffffffffffffffffffc3601126101cf576020610377612c76565b346101cf575f7ffffffffffffffffffffffffffffffffffffffffffffffffffffffffffffffffc3601126101cf576020610377612c6e565b346101cf575f7ffffffffffffffffffffffffffffffffffffffffffffffffffffffffffffffffc3601126101cf5761022061020c612c0d565b346101cf575f7ffffffffffffffffffffffffffffffffffffffffffffffffffffffffffffffffc3601126101cf5761022061020c612b86565b346101cf575f7ffffffffffffffffffffffffffffffffffffffffffffffffffffffffffffffffc3601126101cf57610220604051610832604082612595565b600581527f352e302e300000000000000000000000000000000000000000000000000000006020820152604051918291602083526020830190612697565b346101cf5760807ffffffffffffffffffffffffffffffffffffffffffffffffffffffffffffffffc3601126101cf5760043560407fffffffffffffffffffffffffffffffffffffffffffffffffffffffffffffffdc3601126101cf576040516108d881612579565b60243581526020810190604435825260643567ffffffffffffffff81116101cf5761090790369060040161254b565b90610910612d69565b610918612df4565b845f525f60205260405f209060016040519261093384612579565b805484520154926020830193845261094d61051a84612e4f565b61095685612e4f565b610ab257610a3d916105c4610a1161096c612b7e565b88518a5160408051602081019485529081019290925260608201526109948160808101610564565b5190208a6109a0612b7e565b88518a5160408051602081019485529081019290925260608201526109c88160808101610564565b519020916109d46127bd565b92825f52600360205260405f205491604051936020850195865260408501526060840152608083015260a082015260a0815261059060c082612595565b91895f52600160205273ffffffffffffffffffffffffffffffffffffffff60405f2054169336916126da565b156106e95784937fe6c42c5aeae3d7249609de8452a0aa936be4f2674668f3b8e5157f4bce17c10793608093865f525f60205260405f20825181556001845191015560405193518452516020840152516040830152516060820152a25f52600360205260405f20610aae8154612d26565b9055005b7f422cc3b7000000000000000000000000000000000000000000000000000000005f5260045ffd5b346101cf5760207ffffffffffffffffffffffffffffffffffffffffffffffffffffffffffffffffc3601126101cf57610b11612d69565b610b19612df4565b6004355f526001602052602073ffffffffffffffffffffffffffffffffffffffff60405f205416604051908152f35b346101cf575f7ffffffffffffffffffffffffffffffffffffffffffffffffffffffffffffffffc3601126101cf57602073ffffffffffffffffffffffffffffffffffffffff7f9016d09d72d40fdae2fd8ceac6b6234c7706214fd39c1cd1e609a0528c1993005416604051908152f35b346101cf575f7ffffffffffffffffffffffffffffffffffffffffffffffffffffffffffffffffc3601126101cf577fa16a46d94261c7517cc8ff89f61c0ce93598e3c849801011dee649a6a557d100541580610d34575b15610cd657610c7a610c1f6128dc565b610c276129ef565b6020610c8860405192610c3a8385612595565b5f84525f3681376040519586957f0f00000000000000000000000000000000000000000000000000000000000000875260e08588015260e0870190612697565b908582036040870152612697565b4660608501523060808501525f60a085015283810360c08501528180845192838152019301915f5b828110610cbf57505050500390f35b835185528695509381019392810192600101610cb0565b60646040517f08c379a000000000000000000000000000000000000000000000000000000000815260206004820152601560248201527f4549503731323a20556e696e697469616c697a656400000000000000000000006044820152fd5b507fa16a46d94261c7517cc8ff89f61c0ce93598e3c849801011dee649a6a557d1015415610c0f565b346101cf575f7ffffffffffffffffffffffffffffffffffffffffffffffffffffffffffffffffc3601126101cf576020610377612b7e565b346101cf575f7ffffffffffffffffffffffffffffffffffffffffffffffffffffffffffffffffc3601126101cf577ff0c57e16840df040f15088dc2f81fe391c3923bec73e23a9662efc9c229c6a005460ff8160401c16159067ffffffffffffffff81168015908161149e575b6001149081611494575b15908161148b575b50611463578160017fffffffffffffffffffffffffffffffffffffffffffffffff00000000000000008316177ff0c57e16840df040f15088dc2f81fe391c3923bec73e23a9662efc9c229c6a005561140e575b50610e70612815565b90610e79612c7e565b90610e826131e4565b610e8a6131e4565b825167ffffffffffffffff811161128b57610ec57fa16a46d94261c7517cc8ff89f61c0ce93598e3c849801011dee649a6a557d1025461288b565b601f81116113a1575b506020601f82116001146112c3578190610f1d9394955f926112b8575b50507fffffffffffffffffffffffffffffffffffffffffffffffffffffffffffffffff8260011b9260031b1c19161790565b7fa16a46d94261c7517cc8ff89f61c0ce93598e3c849801011dee649a6a557d102555b815167ffffffffffffffff811161128b57610f7b7fa16a46d94261c7517cc8ff89f61c0ce93598e3c849801011dee649a6a557d1035461288b565b601f8111611213575b50602092601f821160011461113757610fd2929382915f9261112c5750507fffffffffffffffffffffffffffffffffffffffffffffffffffffffffffffffff8260011b9260031b1c19161790565b7fa16a46d94261c7517cc8ff89f61c0ce93598e3c849801011dee649a6a557d103555b5f7fa16a46d94261c7517cc8ff89f61c0ce93598e3c849801011dee649a6a557d100555f7fa16a46d94261c7517cc8ff89f61c0ce93598e3c849801011dee649a6a557d101556110436131e4565b61104b6131e4565b33156111005761105a3361306c565b6110626131e4565b600160025561106d57005b7fffffffffffffffffffffffffffffffffffffffffffffff00ffffffffffffffff7ff0c57e16840df040f15088dc2f81fe391c3923bec73e23a9662efc9c229c6a0054167ff0c57e16840df040f15088dc2f81fe391c3923bec73e23a9662efc9c229c6a00557fc7f505b2f371ae2175ee4913f4499e1f2633a7b5936321eed1cdaeb6115181d2602060405160018152a1005b7f1e4fbdf7000000000000000000000000000000000000000000000000000000005f525f60045260245ffd5b015190508480610eeb565b7fffffffffffffffffffffffffffffffffffffffffffffffffffffffffffffffe08216937fa16a46d94261c7517cc8ff89f61c0ce93598e3c849801011dee649a6a557d1035f52805f20915f5b8681106111fb57508360019596106111c4575b505050811b017fa16a46d94261c7517cc8ff89f61c0ce93598e3c849801011dee649a6a557d10355610ff5565b01517fffffffffffffffffffffffffffffffffffffffffffffffffffffffffffffffff60f88460031b161c19169055838080611197565b91926020600181928685015181550194019201611184565b7fa16a46d94261c7517cc8ff89f61c0ce93598e3c849801011dee649a6a557d1035f5261127b907f5f9ce34815f8e11431c7bb75a8e6886a91478f7ffc1dbb0a98dc240fddd76b75601f840160051c81019160208510611281575b601f0160051c0190612d53565b83610f84565b909150819061126e565b7f4e487b71000000000000000000000000000000000000000000000000000000005f52604160045260245ffd5b015190508580610eeb565b7fffffffffffffffffffffffffffffffffffffffffffffffffffffffffffffffe08216907fa16a46d94261c7517cc8ff89f61c0ce93598e3c849801011dee649a6a557d1025f52805f20915f5b81811061138957509583600195969710611352575b505050811b017fa16a46d94261c7517cc8ff89f61c0ce93598e3c849801011dee649a6a557d10255610f40565b01517fffffffffffffffffffffffffffffffffffffffffffffffffffffffffffffffff60f88460031b161c19169055848080611325565b9192602060018192868b015181550194019201611310565b7fa16a46d94261c7517cc8ff89f61c0ce93598e3c849801011dee649a6a557d1025f52611408907f42ad5d3e1f2e6e70edcf6d991b8a3023d3fca8047a131592f9edb9fd9b89d57d601f840160051c8101916020851061128157601f0160051c0190612d53565b84610ece565b7fffffffffffffffffffffffffffffffffffffffffffffff0000000000000000001668010000000000000001177ff0c57e16840df040f15088dc2f81fe391c3923bec73e23a9662efc9c229c6a005581610e67565b7ff92ee8a9000000000000000000000000000000000000000000000000000000005f5260045ffd5b90501583610e14565b303b159150610e0c565b839150610e02565b346101cf575f7ffffffffffffffffffffffffffffffffffffffffffffffffffffffffffffffffc3601126101cf573373ffffffffffffffffffffffffffffffffffffffff7f237e158222e3e6968b72b9db0d8043aacf074ad9f650f0d1606b4d82ee432c0054160361151b576106be3361306c565b7f118cdaa7000000000000000000000000000000000000000000000000000000005f523360045260245ffd5b346101cf575f7ffffffffffffffffffffffffffffffffffffffffffffffffffffffffffffffffc3601126101cf5761157d61302c565b7fffffffffffffffffffffffff00000000000000000000000000000000000000007f237e158222e3e6968b72b9db0d8043aacf074ad9f650f0d1606b4d82ee432c0054167f237e158222e3e6968b72b9db0d8043aacf074ad9f650f0d1606b4d82ee432c00555f73ffffffffffffffffffffffffffffffffffffffff7f9016d09d72d40fdae2fd8ceac6b6234c7706214fd39c1cd1e609a0528c199300547fffffffffffffffffffffffff000000000000000000000000000000000000000081167f9016d09d72d40fdae2fd8ceac6b6234c7706214fd39c1cd1e609a0528c19930055167f8be0079c531659141344cd1fd0a4f28419497f9722a3daafe3b4186f6b6457e08280a3005b346101cf5760207ffffffffffffffffffffffffffffffffffffffffffffffffffffffffffffffffc3601126101cf576116be612d69565b6116c6612df4565b6004355f526003602052602060405f2054604051908152f35b346101cf575f7ffffffffffffffffffffffffffffffffffffffffffffffffffffffffffffffffc3601126101cf5773ffffffffffffffffffffffffffffffffffffffff7f00000000000000000000000000000000000000000000000000000000000000001630036117745760206040517f360894a13ba1a3210667c828492db98dca3e2076cc3735a920a3ca505d382bbc8152f35b7fe07c8dba000000000000000000000000000000000000000000000000000000005f5260045ffd5b60407ffffffffffffffffffffffffffffffffffffffffffffffffffffffffffffffffc3601126101cf576117ce612528565b60243567ffffffffffffffff81116101cf57366023820112156101cf576117ff9036906024816004013591016126da565b611807612d69565b61180f61302c565b73ffffffffffffffffffffffffffffffffffffffff8216916040517f52d1902d000000000000000000000000000000000000000000000000000000008152602081600481875afa5f91816119f7575b5061188f57837f4c9c8ce3000000000000000000000000000000000000000000000000000000005f5260045260245ffd5b807f360894a13ba1a3210667c828492db98dca3e2076cc3735a920a3ca505d382bbc8592036119cc5750813b156119a157807fffffffffffffffffffffffff00000000000000000000000000000000000000007f360894a13ba1a3210667c828492db98dca3e2076cc3735a920a3ca505d382bbc5416177f360894a13ba1a3210667c828492db98dca3e2076cc3735a920a3ca505d382bbc557fbc7cd75a20ee27fd9adebab32041f755214dbc6bffa90cc0225b39da2e5c2d3b5f80a2815115611970575f808360206106be95519101845af461196a61317b565b91613384565b50503461197957005b7fb398979f000000000000000000000000000000000000000000000000000000005f5260045ffd5b7f4c9c8ce3000000000000000000000000000000000000000000000000000000005f5260045260245ffd5b7faa1d49a4000000000000000000000000000000000000000000000000000000005f5260045260245ffd5b9091506020813d602011611a23575b81611a1360209383612595565b810103126101cf5751908561185e565b3d9150611a06565b346101cf5760207ffffffffffffffffffffffffffffffffffffffffffffffffffffffffffffffffc3601126101cf575f6020604051611a6981612579565b8281520152611a76612d69565b611a7e612df4565b6004355f525f6020526040805f208151611a9781612579565b60206001835493848452015491019081528251918252516020820152f35b346101cf5760207ffffffffffffffffffffffffffffffffffffffffffffffffffffffffffffffffc3601126101cf576004355f52600460205261022061020c60405f20612ac2565b346101cf575f7ffffffffffffffffffffffffffffffffffffffffffffffffffffffffffffffffc3601126101cf5761022061020c612850565b346101cf575f7ffffffffffffffffffffffffffffffffffffffffffffffffffffffffffffffffc3601126101cf5761022061020c612815565b346101cf577ffffffffffffffffffffffffffffffffffffffffffffffffffffffffffffffffc3601606081126101cf576040136101cf57604051611bb281612579565b60043581526020810160243581526044359173ffffffffffffffffffffffffffffffffffffffff8316928381036101cf57611beb612d69565b611bf3612df4565b611bfc82612e4f565b610ab2578315611cff577fa360824b150a5ec278bb8f5895c294ae73fba4d5801ec74e52230b82ed5e0df691600254948594855f525f602052600160405f20918451835551910155845f52600160205260405f20907fffffffffffffffffffffffff0000000000000000000000000000000000000000825416179055611cb56040519283928390929173ffffffffffffffffffffffffffffffffffffffff60409160206060850196805186520151602085015216910152565b0390a26001810190818111611cd257602091600255604051908152f35b7f4e487b71000000000000000000000000000000000000000000000000000000005f52601160045260245ffd5b60846040517f08c379a000000000000000000000000000000000000000000000000000000000815260206004820152602760248201527f52656769737472793a207369676e65722063616e6e6f74206265207a65726f2060448201527f61646472657373000000000000000000000000000000000000000000000000006064820152fd5b346101cf575f7ffffffffffffffffffffffffffffffffffffffffffffffffffffffffffffffffc3601126101cf5760206103776127bd565b346101cf5760607ffffffffffffffffffffffffffffffffffffffffffffffffffffffffffffffffc3601126101cf5760043560243567ffffffffffffffff81116101cf57366023820112156101cf57611e1e9036906024816004013591016126da565b60443567ffffffffffffffff81116101cf57611e3e90369060040161254b565b611e46612d69565b611e4e612df4565b83156121ab5782519160208401928320855f52600460205260405f206040515f9181815493611e7c8561288b565b9283835260208301956001811690815f1461216e575060011461212a575b50611ea792500382612595565b51902014612102576105c4610598611efd9486519020611ec5612c6e565b90885f52600360205260405f205460405191602083019384528a6040840152606083015260808201526080815261059060a082612595565b156106e957815f526004602052611f1660405f20612ac2565b825f52600460205260405f209180519267ffffffffffffffff841161128b578493611f41825461288b565b601f81116120d2575b506020601f821160011461200857927f9ed4449b476a5b13774a459785dc516f5c8877b2133c752b9e191a81ee273c9c9492611fc083611fe594611fd7975f91611ffd575b507fffffffffffffffffffffffffffffffffffffffffffffffffffffffffffffffff8260011b9260031b1c19161790565b90555b604051938493604085526040850190612697565b908382036020850152612697565b0390a25f52600360205260405f20610aae8154612d26565b90508401518b611f8f565b7fffffffffffffffffffffffffffffffffffffffffffffffffffffffffffffffe0821690835f52805f20915f5b8181106120b7575083611fd796937f9ed4449b476a5b13774a459785dc516f5c8877b2133c752b9e191a81ee273c9c989693611fe59660019410612080575b5050811b019055611fc3565b8501517fffffffffffffffffffffffffffffffffffffffffffffffffffffffffffffffff60f88460031b161c191690558a80612074565b82870151845589985060019093019260209283019201612035565b6120fc90835f5260205f20601f840160051c8101916020851061128157601f0160051c0190612d53565b86611f4a565b7f37a6fe9e000000000000000000000000000000000000000000000000000000005f5260045ffd5b90505f9291925260205f20905f915b818310612152575050906020611ea7928201018b611e9a565b6020919350806001915483858801015201910190918392612139565b7fffffffffffffffffffffffffffffffffffffffffffffffffffffffffffffff0016875250611ea793151560051b830160200191508c9050611e9a565b60646040517f08c379a000000000000000000000000000000000000000000000000000000000815260206004820152601860248201527f536368656d61204944206e6f74207265676973746572656400000000000000006044820152fd5b346101cf575f7ffffffffffffffffffffffffffffffffffffffffffffffffffffffffffffffffc3601126101cf5761022061020c612610565b346101cf5760607ffffffffffffffffffffffffffffffffffffffffffffffffffffffffffffffffc3601126101cf5760043560243573ffffffffffffffffffffffffffffffffffffffff81168091036101cf5760443567ffffffffffffffff81116101cf576122b590369060040161254b565b906122be612d69565b6122c6612df4565b835f525f6020526122f661051a60405f206001604051916122e683612579565b8054835201546020820152612e4f565b82156124a457835f5260016020528273ffffffffffffffffffffffffffffffffffffffff60405f20541614612420576123a29061239b61236f612337612c76565b875f52600360205260405f2054604051906020820192835289604083015288606083015260808201526080815261059060a082612595565b91865f52600160205273ffffffffffffffffffffffffffffffffffffffff60405f2054169436916126da565b9083612f04565b156106e95760407f9894f2fe60c9d1a4650c7b6ba5097909cf66cc42dd55537562e3b69146a984b7918493845f526001602052825f20817fffffffffffffffffffffffff000000000000000000000000000000000000000082541617905582519182526020820152a25f52600360205260405f20610aae8154612d26565b60846040517f08c379a000000000000000000000000000000000000000000000000000000000815260206004820152603260248201527f52656769737472793a206e65775369676e657220697320616c7265616479207460448201527f68652061737369676e6564207369676e657200000000000000000000000000006064820152fd5b60846040517f08c379a000000000000000000000000000000000000000000000000000000000815260206004820152602a60248201527f52656769737472793a206e65775369676e65722063616e6e6f74206265207a6560448201527f726f2061646472657373000000000000000000000000000000000000000000006064820152fd5b6004359073ffffffffffffffffffffffffffffffffffffffff821682036101cf57565b9181601f840112156101cf5782359167ffffffffffffffff83116101cf57602083818601950101116101cf57565b6040810190811067ffffffffffffffff82111761128b57604052565b90601f7fffffffffffffffffffffffffffffffffffffffffffffffffffffffffffffffe0910116810190811067ffffffffffffffff82111761128b57604052565b67ffffffffffffffff811161128b57601f017fffffffffffffffffffffffffffffffffffffffffffffffffffffffffffffffe01660200190565b6040519061261f608083612595565b605082527f722c75696e74323536206e6f6e636529000000000000000000000000000000006060837f557064617465497373756572536368656d615369676e65722875696e7432353660208201527f20697373756572536368656d6149642c61646472657373206e65775369676e6560408201520152565b907fffffffffffffffffffffffffffffffffffffffffffffffffffffffffffffffe0601f602080948051918291828752018686015e5f8582860101520116010190565b9291926126e6826125d6565b916126f46040519384612595565b8294818452818301116101cf578281602093845f960137010152565b6040519061271f60a083612595565b607b82527f5075626b65792875696e7432353620782c75696e7432353620792900000000006080837f557064617465497373756572536368656d615075626b65792875696e7432353660208201527f20697373756572536368656d6149642c5075626b6579206e65775075626b657960408201527f2c5075626b6579206f6c645075626b65792c75696e74323536206e6f6e63652960608201520152565b6127c5612710565b60405161280f6020828180820195805191829101875e81015f8382015203017fffffffffffffffffffffffffffffffffffffffffffffffffffffffffffffffe08101835282612595565b51902090565b60405190612824604083612595565b601e82527f43726564656e7469616c536368656d61497373756572526567697374727900006020830152565b6040519061285f604083612595565b601b82527f5075626b65792875696e7432353620782c75696e7432353620792900000000006020830152565b90600182811c921680156128d2575b60208310146128a557565b7f4e487b71000000000000000000000000000000000000000000000000000000005f52602260045260245ffd5b91607f169161289a565b604051905f827fa16a46d94261c7517cc8ff89f61c0ce93598e3c849801011dee649a6a557d102549161290e8361288b565b80835292600181169081156129b25750600114612934575b61293292500383612595565b565b507fa16a46d94261c7517cc8ff89f61c0ce93598e3c849801011dee649a6a557d1025f90815290917f42ad5d3e1f2e6e70edcf6d991b8a3023d3fca8047a131592f9edb9fd9b89d57d5b81831061299657505090602061293292820101612926565b602091935080600191548385890101520191019091849261297e565b602092506129329491507fffffffffffffffffffffffffffffffffffffffffffffffffffffffffffffff001682840152151560051b820101612926565b604051905f827fa16a46d94261c7517cc8ff89f61c0ce93598e3c849801011dee649a6a557d1035491612a218361288b565b80835292600181169081156129b25750600114612a445761293292500383612595565b507fa16a46d94261c7517cc8ff89f61c0ce93598e3c849801011dee649a6a557d1035f90815290917f5f9ce34815f8e11431c7bb75a8e6886a91478f7ffc1dbb0a98dc240fddd76b755b818310612aa657505090602061293292820101612926565b6020919350806001915483858901015201910190918492612a8e565b9060405191825f825492612ad58461288b565b8084529360018116908115612b3e5750600114612afa575b5061293292500383612595565b90505f9291925260205f20905f915b818310612b22575050906020612932928201015f612aed565b6020919350806001915483858901015201910190918492612b09565b602093506129329592507fffffffffffffffffffffffffffffffffffffffffffffffffffffffffffffff0091501682840152151560051b8201015f612aed565b6127c5612850565b60405190612b95608083612595565b604c82527f6e74323536206e6f6e63652900000000000000000000000000000000000000006060837f557064617465497373756572536368656d615572692875696e7432353620697360208201527f73756572536368656d6149642c737472696e6720736368656d615572692c756960408201520152565b60405190612c1c606083612595565b603882527f72536368656d6149642c75696e74323536206e6f6e63652900000000000000006040837f52656d6f7665497373756572536368656d612875696e7432353620697373756560208201520152565b6127c5612b86565b6127c5612610565b60405190612c8d604083612595565b600382527f312e3000000000000000000000000000000000000000000000000000000000006020830152565b6127c5612c0d565b15612cc857565b60646040517f08c379a000000000000000000000000000000000000000000000000000000000815260206004820152601b60248201527f52656769737472793a206964206e6f74207265676973746572656400000000006044820152fd5b7fffffffffffffffffffffffffffffffffffffffffffffffffffffffffffffffff8114611cd25760010190565b818110612d5e575050565b5f8155600101612d53565b73ffffffffffffffffffffffffffffffffffffffff7f000000000000000000000000000000000000000000000000000000000000000016803014908115612db2575b5061177457565b905073ffffffffffffffffffffffffffffffffffffffff7f360894a13ba1a3210667c828492db98dca3e2076cc3735a920a3ca505d382bbc541614155f612dab565b67ffffffffffffffff7ff0c57e16840df040f15088dc2f81fe391c3923bec73e23a9662efc9c229c6a00541615612e2757565b7f0206032a000000000000000000000000000000000000000000000000000000005f5260045ffd5b805115908115612e5d575090565b6020915001511590565b604290612e726132d5565b612e7a61333f565b6040519060208201927f8b73c3c69bb8fe3d512ecc4cf759cc79239f7b179b0ffacaa9a75d522b39400f8452604083015260608201524660808201523060a082015260a08152612ecb60c082612595565b51902090604051917f19010000000000000000000000000000000000000000000000000000000000008352600283015260228201522090565b9190823b612f795790612f16916131aa565b506004811015612f4c57159182612f2c57505090565b73ffffffffffffffffffffffffffffffffffffffff919250811691161490565b7f4e487b71000000000000000000000000000000000000000000000000000000005f52602160045260245ffd5b915f92610564612fc8859460405192839160208301957f1626ba7e0000000000000000000000000000000000000000000000000000000087526024840152604060448401526064830190612697565b51915afa612fd461317b565b8161301e575b81612fe3575090565b80516020808301935090820191909103126101cf57517f1626ba7e000000000000000000000000000000000000000000000000000000001490565b905060208151101590612fda565b73ffffffffffffffffffffffffffffffffffffffff7f9016d09d72d40fdae2fd8ceac6b6234c7706214fd39c1cd1e609a0528c1993005416330361151b57565b7fffffffffffffffffffffffff00000000000000000000000000000000000000007f237e158222e3e6968b72b9db0d8043aacf074ad9f650f0d1606b4d82ee432c0054167f237e158222e3e6968b72b9db0d8043aacf074ad9f650f0d1606b4d82ee432c005573ffffffffffffffffffffffffffffffffffffffff807f9016d09d72d40fdae2fd8ceac6b6234c7706214fd39c1cd1e609a0528c19930054921691827fffffffffffffffffffffffff00000000000000000000000000000000000000008216177f9016d09d72d40fdae2fd8ceac6b6234c7706214fd39c1cd1e609a0528c19930055167f8be0079c531659141344cd1fd0a4f28419497f9722a3daafe3b4186f6b6457e05f80a3565b3d156131a5573d9061318c826125d6565b9161319a6040519384612595565b82523d5f602084013e565b606090565b81519190604183036131da576131d39250602082015190606060408401519301515f1a9061323b565b9192909190565b50505f9160029190565b60ff7ff0c57e16840df040f15088dc2f81fe391c3923bec73e23a9662efc9c229c6a005460401c161561321357565b7fd7e6bcf8000000000000000000000000000000000000000000000000000000005f5260045ffd5b91907f7fffffffffffffffffffffffffffffff5d576e7357a4501ddfe92f46681b20a084116132ca579160209360809260ff5f9560405194855216868401526040830152606082015282805260015afa156132bf575f5173ffffffffffffffffffffffffffffffffffffffff8116156132b557905f905f90565b505f906001905f90565b6040513d5f823e3d90fd5b5050505f9160039190565b6132dd6128dc565b80519081156132ed576020012090565b50507fa16a46d94261c7517cc8ff89f61c0ce93598e3c849801011dee649a6a557d10054801561331a5790565b507fc5d2460186f7233c927e7db2dcc703c0e500b653ca82273b7bfad8045d85a47090565b6133476129ef565b8051908115613357576020012090565b50507fa16a46d94261c7517cc8ff89f61c0ce93598e3c849801011dee649a6a557d10154801561331a5790565b906133c1575080511561339957602081519101fd5b7fd6bda275000000000000000000000000000000000000000000000000000000005f5260045ffd5b81511580613414575b6133d2575090565b73ffffffffffffffffffffffffffffffffffffffff907f9996b315000000000000000000000000000000000000000000000000000000005f521660045260245ffd5b50803b156133ca56fea2646970667358221220304a55b8c9cf3b16eadad7ad61f880d0de7a8216b60a5cd1f65655b0e8da4ce664736f6c634300081c0033f0c57e16840df040f15088dc2f81fe391c3923bec73e23a9662efc9c229c6a00","linkReferences":{}},"methodIdentifiers":{"EIP712_NAME()":"3b2fb7a8","EIP712_VERSION()":"eccec5a8","PUBKEY_TYPEDEF()":"3cd897b6","PUBKEY_TYPEHASH()":"837338ad","REMOVE_ISSUER_SCHEMA_TYPEDEF()":"b9c37f87","REMOVE_ISSUER_SCHEMA_TYPEHASH()":"f1048371","UPDATE_ISSUER_SCHEMA_URI_TYPEDEF()":"ae67c8ff","UPDATE_ISSUER_SCHEMA_URI_TYPEHASH()":"d284c3fa","UPDATE_PUBKEY_TYPEDEF()":"f3c0e660","UPDATE_PUBKEY_TYPEHASH()":"30bd1ba8","UPDATE_SIGNER_TYPEDEF()":"17237130","UPDATE_SIGNER_TYPEHASH()":"d406d8a6","UPGRADE_INTERFACE_VERSION()":"ad3cb1cc","acceptOwnership()":"79ba5097","eip712Domain()":"84b0196e","getIssuerSchemaUri(uint256)":"ed9e21b7","getSignerForIssuerSchemaId(uint256)":"a880f213","idToSchemaUri(uint256)":"46a204ce","initialize()":"8129fc1c","issuerSchemaIdToPubkey(uint256)":"46b0d4f7","nextIssuerSchemaId()":"f71e63ec","nonceOf(uint256)":"6ccbae5f","owner()":"8da5cb5b","pendingOwner()":"e30c3978","proxiableUUID()":"52d1902d","register((uint256,uint256),address)":"321ab85f","remove(uint256,bytes)":"e008f022","renounceOwnership()":"715018a6","transferOwnership(address)":"f2fde38b","updateIssuerSchemaUri(uint256,string,bytes)":"25fdede3","updatePubkey(uint256,(uint256,uint256),bytes)":"a96006ff","updateSigner(uint256,address,bytes)":"13d28f81","upgradeToAndCall(address,bytes)":"4f1ef286"},"id":67}